:0300000002096B87
:0C096B00787FE4F6D8FD75813B0209B2EC
:050C8F00A55AA50101BA
:100B6100052900000000002020090000000000000D
:100B71000000000000000000000000000000000074
:0A0B8100000000000000000000006A
:0F0B0400C284C2857F057E00120B13D284D28576
:100B1300E4FDFCC3ED9FEC9E5015E4FBFA0BBB0018
:0F0B2300010AEB646E4A70F50DBD00010C80E411
:010B320022A0
:100BB600E4FEEEC3940874809480501BEF30E70483
:100BC600D2958002C295EF25E0FFD296A297E43334
:070BD6004207C2960E80DB0E
:010BDD0022F5
:090C8600C296D293C294D29222CC
:0B0C2C007F07120C79AB07AD037F2798
:100C3700C293120BB6AC07AF05120BB6D293AF0433
:010C4700228A
:090B33007A0C798F7533057F2AD5
:100B3C00C293120BB6AD07E4FCECC3953350111203
:100B4C0009F7FF120BB6740129F9E43AFA0C80E9A3
:040B5C00D293AF057C
:010B60002272
:0C0C7900C293120BB6E4FF120BB6D2932C
:010C8500224C
:060AD3008B358A368937DD
:100AD900C293120BB6AD07E4FCECC395385017E48A
:100AE900FF120BB6AB35AA36A9378C82758300EF96
:0A0AF900120A100C80E3D293AF053F
:010B030022CF
:100A3200C2947BFF120B337D017F21120C377F2280
:100A4200120C377D287F25120C377D207F31120C46
:100A5200377D0F7F26120C377F20120C377DFF7FE8
:070A620027120C37D2942289
:100A6900C2947BFF7A0C798F7533057F30120B3C6A
:100A7900120B337D017F22120C377D0A7F24120C61
:100A8900377D287F25120C377D0F7F26120C371DE5
:050A99007F20020C3774
:060A9E008B398A3A893B06
:100AA400C294120C2CEB30E61AAB39AA3AA93B7566
:100AB40038207F61120AD37DFF7FE2120C37D29473
:0E0AC4007F73227DFF7FE2120C37D2947F6693
:010AD2002201
:100B8C00C2947533207FA0120B3CD2942092FD129C
:100B9C000C2C7DFF7FE1120C37EB30E4037F6D22D0
:090BAC00EB30E5037F73227F6644
:010BB500221D
:0B0C4800D282C283AF08120C537F0A57
:080C53008F993099FDC299222E
:060C0600AC077FFF7E0039
:100C0C00D3EF9400EE94004016E4FDEDC3941B74F6
:0F0C1C0080948050030D80F3EF1F70E41E80E181
:010C2B0022A6
:060C5B007B007A007929FC
:080C6100120B8C120C06AF040B
:010C69002268
:060C6A007B007A0079090D
:080C7000120A9E120C06AF04EB
:010C78002259
:100BDE00758921758CB0758A3CD28CD2A9D2AF752D
:100BEE009850D29FD29EC29DD29C758780758DF4EF
:080BFE00758BF4D2ACD28E22FB
:1008D300D292120BDE120C86120A32D2922092FDB1
:1008E300120C6A850908E50824FE601C14602F14A5
:1008F300604724037062D284D285D280C281120CF5
:1009030048D2922092FD8046D284D285C280D28181
:10091300C282D283120C4CD2922092FD8030D284B8
:10092300D285D280C281C282D283120C4CD2923041
:100933009205120B0480F88015D284D285C280D22E
:1009430081120C48D292309205120B0480F8120CDB
:100953006A850908AF0880027F6B120C4EC280C201
:0809630081C282C2830208DE9A
:10080000D292120BDE120C86120A69E4F5A0752949
:100810007885A008AFA08F08EF60F97F647E001292
:100820000B13AFA08F08EF60EBE50814606C146049
:100830004924FE602524FC60030208C675290112C4
:100840000C5B8F2E120C4EAFA08F08EF640870283F
:10085000F5A07F0AFE120B1380ED752902120C5BC6
:100860008F2E120C4EAFA08F08EF6404700AF5A013
:100870007F0AFE120B1380ED8040752903120C5B7A
:100880008F2E120C4EAFA08F08EF6402700AF5A0F5
:100890007F0AFE120B1380ED8020752904AF2E1203
:1008A0000C4E120C5B8F2EAFA08F08EF6401700A04
:1008B000F5A07F0AFE120B1380EDE4F529FB120C64
:1008C0005DAF2E120C4E7F0A7E00120B13E4F5A0D2
:0308D0000208110A
:030C940002080053
:10097700020C94E493A3F8E493A34003F68001F2F6
:1009870008DFF48029E493A3F85407240CC8C33381
:10099700C4540F4420C8834004F456800146F6DF50
:1009A700E4800B0102040810204080900B61E47E74
:1009B700019360BCA3FF543F30E509541FFEE49345
:1009C700A360010ECF54C025E060A840B8E493A30C
:1009D700FAE493A3F8E493A3C8C582C8CAC583CA37
:1009E700F0A3C8C582C8CAC583CADFE9DEE780BEEF
:010B8B000069
:1009F700BB010689828A83E0225002E722BBFE02FE
:090A0700E32289828A83E4932230
:100A1000F8BB010DE58229F582E5833AF583E8F01C
:100A2000225006E92582C8F622BBFE05E92582C8C8
:020A3000F222B0
:00000001FF
