:020000040800F2
:10000000982E0020B5010008B1250008F52200084F
:10001000AD250008071F0008CF2C000800000000D5
:100020000000000000000000000000005127000850
:100030008D2000080000000039260008652800080F
:10004000CF010008CF010008CF010008CF01000850
:10005000CF010008CF010008CF010008CF01000840
:10006000CF01000891200008CF010008CF0100084F
:10007000CF010008CF010008CF010008CF01000820
:10008000CF010008CF010008CF010008CF01000810
:10009000CF010008CF010008CF010008CF01000800
:1000A000CF010008CF010008CF010008CF010008F0
:1000B000CF010008C9280008CF010008CF010008BF
:1000C000CF010008CF010008CF010008CF010008D0
:1000D000CF010008052A00088D2A0008C12A00085F
:1000E000CF010008CF010008CF01000800F002F89E
:1000F00000F050F80AA090E8000C82448344AAF172
:100100000107DA4501D100F045F8AFF2090EBAE86F
:100110000F0013F0010F18BFFB1A43F0010318473B
:1001200080540000A0540000103A24BF78C878C161
:10013000FAD8520724BF30C830C144BF04680C60ED
:10014000704700000023002400250026103A28BF35
:1001500078C1FBD8520728BF30C148BF0B60704739
:10016000662905F0D880732900F0AB830020704722
:100170001FB500F03FFC04000020002104F066F9E8
:10018000401C60600020002104F04AF9E0601FBDBF
:1001900010B510BD00F09CFD1146FFF7E9FF03F01C
:1001A0005BF801F015F803B4FFF7F2FF03BC02F0AF
:1001B00011FE00000948804709480047FEE7FEE7B6
:1001C000FEE7FEE7FEE7FEE7FEE7FEE7FEE7FEE707
:1001D00004480549054A064B704700006928000895
:1001E000ED00000898280020982E0020982A002072
:1001F000982A0020704700000FB41CB5074B06AAD0
:100200007B4469460090059800F031FB0020694668
:1002100000F040FB1CBC5DF814FB000091060000E0
:1002200070B50C460546012A05D02878800600D511
:10023000EA69002302E0012305E05B1C934202D23D
:10024000E05C0028F9D1A869E618C01AA861286AFC
:10025000184428622846AFF3008004E0D5E9012164
:1002600014F8010B9047B442F8D32846AFF300804E
:1002700070BD2DE9F0474FF0000A89460446C0F8EA
:1002800020A02046E1688847002876D0252806D09F
:10029000D4E901219047206A401C2062F1E7E1681F
:1002A000204600258847C4F81CA006460027C4F84D
:1002B00018A02A2E09D0304602F085FD38B304EB91
:1002C0008708303EC8F8186019E059F8041B20462A
:1002D00004EB87029161E1688847012F064618D137
:1002E000E069002820DA25F020051DE0D8F8180084
:1002F00000EB800006EB40003038C8F818002046BC
:10030000E1688847064602F05EFD0028EED1012F25
:100310000AD02E2E08D12046E16888477F1C064669
:10032000022F45F02005C4DBA069002803DA404213
:1003300045F00105A061E80701D025F01005B6B130
:10034000A6F14100192802D8203645F400654A4636
:100350003146204625604D46FFF702FF58B101287F
:1003600006D0ED1D25F0070000F1080989E704E03B
:1003700005F1040985E730468AE7206ABDE8F08781
:10038000014A00F0F3BA00006800002040EA0103CF
:10039000024630B59B0710D14FF0013400E008C28F
:1003A00008C91D1B9D4315EAC41FF8D013F0FF01B7
:1003B00002F8011B0DD01B0AF8E711F8013B002BD6
:1003C00002F8013B05D011F8013B002B02F8013B7C
:1003D000F3D130BD10B5044610F0030F08BF11F083
:1003E000030F40F015804FF0013E121FC0F20E8047
:1003F00051F8043BA3EB0E0C2CEA030C1CEACE1CB8
:1004000008BF40F8043BF0D0A1F1040102F104025E
:10041000521E08DB11F8013B002B00F8013BF7D11D
:10042000114600F0C5FA204610BD7047704770476E
:10043000704710B500F0E2FA006810BD10B5044630
:1004400000F0DCFA046010BD70472DE9FF4F0C4648
:100450001E464FF0FF378BB0D2E90001DDF8608017
:100460000A908A46C1F30A5505B93D46002108465F
:100470004FF00000BAF1000F00F4400005DA00EB85
:1004800080004FF4400101EA50004FEA9059B9F161
:10049000010F00DDB9460A9850EA4A000ED044F632
:1004A0001050A5F2FF3545432F14B8F1000F1ED0B0
:1004B0007542291E1EDDC9F100021CE0B8F1010FD2
:1004C0004FF0000001D0302103E0F24305E0215459
:1004D000401CB042FBDB30460022002121540B9926
:1004E000C1F80880C1E900200FB0BDE8F08FBD1B46
:1004F0006D1CDEE74A4600DA694206A800F030FBD0
:1005000006AB93E8070003AB83E8070050460A995F
:1005100001F0EBF88DE80700A0F500501F380090BF
:100520000398002D09DD42F21F014A46084403A941
:100530000390684601F075FB08E0A0F500504A46BC
:100540001F3803A90390684601F093FB8DE807006C
:100550000004000C03D04FF0FF30410800E01046CB
:10056000B8F1000F03D00022009215461EE0751E60
:1005700005D400F047FA303262556D1EF9D5B34606
:100580000122084302D000227F1C04E0207830289A
:1005900001D100227F1E002A099786D01DE0112D6F
:1005A00007DA00F02FFA303262556D1C50EA010272
:1005B000F5D1084302D00098C8B10EE00021681EB2
:1005C00005E0235C625C63542254401E491C814256
:1005D000F7DBAB46A81B401E0990002004F80B0077
:1005E0000B98099AC0F80880C0E9002B7CE7112617
:1005F0004FF0000859E72DE9F04F88460446D21D18
:1006000022F0070191B0D1E90001CDE90A0102F021
:1006100060FB02460B98C00F01D02D2007E0206838
:10062000810701D52B2002E0202101EAC000032A26
:10063000099001D0072A05DB03464146204600F019
:100640002FFA0BE12078800601D5E06900E0062052
:10065000B8F1650F814606D0B8F1660F18D0B8F131
:10066000670F70D131E00020B9F1110F009001DB6C
:10067000112301E009F101030AAA01A90CA8FFF75F
:10068000E4FEDDE90C70002609F10105834647E030
:1006900001204B4600904FF000470AAA01A90CA880
:1006A000FFF7D3FEDDE90DB00C995D46002610B9C9
:1006B00009F101000D18B9EB050003D4C0F1FF36B4
:1006C00009F10105A5EB09002BE0B9F1010F01DAF1
:1006D0004FF001090020B9F1110F0090484601DDEB
:1006E000112300E003460AAA01A90CA8FFF7ADFEFA
:1006F000DDE90C704D4600268346207800070AD4B9
:10070000AB4500DA5D4601A8012D04DD411911F861
:10071000011C302907D04F4502DA17F1040F04DA23
:10072000012082460FE06D1EEEE7002F02DCED1B7C
:100730003E4403E0781CA84200DD7D1CB81B00F19C
:10074000010A4FF000472078000703D4AA4501DBD7
:100750004FF0FF3A0021B7F1004F0DF143088DF83B
:10076000431024D002202B23002F01DA7F422D23B7
:100770000A21021EA0F1010000DC5FB197FBF1FC31
:1007800097FBF1F201FB1C7C17460CF1300C08F8CA
:1007900001CDEEE7A8F1010003702188090501D51C
:1007A000452100E06521A0F1010800F8011C09982D
:1007B0000FA9A1EB0807FF1D00B10120411901EBB2
:1007C000EA70A1693844081A401EA0612078C0066A
:1007D00002D42046AFF30080099828B1D4E9012162
:1007E0009047206A401C20622078C00622D520460F
:1007F000AFF300801EE0002E04DBB34502DD01A84C
:10080000805D00E03020D4E901219047206A401C3F
:100810002062761CAAF101005FEA000A0AD100F00A
:10082000E9F8C0680168405CD4E901219047206A7A
:10083000401C2062281EA5F10105DCDC07E0D4E99C
:10084000012118F8010B9047206A401C2062381ED5
:10085000A7F10107F3DC2046AFF30080032011B0BD
:1008600043E6000001694A1C02610878704700B540
:100870008FB0CDE901310021059105497944CDE9D9
:10088000031011466846FFF7F4FC0FB000BD0000EE
:10089000E5FFFFFF0A6802F8010B0A60704710B518
:1008A000436913B1AFF3008001E0FFF7B9FC012009
:1008B00010BD127800F124010A7000224A70012252
:1008C000EDE711684FF0FF32E9E700000FB40023B5
:1008D00000B589B00CA900910B99CB60204B7B44EB
:1008E0000693204B7B44079304236FF00042CDE92D
:1008F00001321D4A7A446B4608920246002004F0F9
:100900006CFD09B05DF814FB70B506464FF0FF3082
:1009100015460C46324686B00091CDE90101694684
:100920000020049004A8FFF7D1FF03460498211883
:1009300025B108B10A4600E022462A6000280DD001
:10094000002B02DD0098884208D03246081B694619
:100950000094CDE9010404A8FFF7B8FF06B070BD0C
:100960003F02000057020000970100002DE9F0410E
:1009700015460E46040002D12C6804B90BA420468B
:1009800000F06CF90444207870B1274631463846AF
:1009900000F054F90444207810B1002004F8010B51
:1009A00038462C60BDE8F0810027F9E70000000020
:1009B0004FF000020429C0F0128010F0030C00F088
:1009C0005D81CCF1040CBCF1020F18BF00F8012BC3
:1009D000A8BF20F8022BA1EB0C0100F04FB95FEA91
:1009E000C17C24BF00F8012B00F8012B48BF00F8A0
:1009F000012B70470048704754280020004870477A
:100A00003428002030B5B0F10A024FEA900E71F19F
:100A100000034EEA817EB0EB0E0061EB91014FEADC
:100A2000101E4EEA017E10EB0E0041EB11114FEA51
:100A3000102E4EEA016E10EB0E0041EB11214FEA31
:100A4000104E4EEA014E10EB0E0041EB11414018E2
:100A500041F100014FEAD00040EA41704FEAD10174
:100A600010EB80054FEA810444EA907444EB0104E2
:100A70006D1944EB0404521BA3414FF0000348BF1F
:100A80000A3200D530BD401C41F1000130BD10B527
:100A9000044600F043F90068005D00F0010010BD5D
:100AA0002DE9F0411F46044603260168072A01F498
:100AB000006004DB08B116A505E016A503E008B147
:100AC00015A500E015A521F010002060A069C01E4A
:100AD000A0610FB1401EA0612046AFF300804FB16E
:100AE000D4E9012138469047206A401C2062C01C8E
:100AF000206206E0206AFAE7D4E9012115F8010B2B
:100B00009047761EF8D22046AFF30080BDE8F08112
:100B10004E414E006E616E00494E4600696E6600A1
:100B2000426842B1016811F8013B23B1521EC0E98D
:100B30000012184670470121C160881E7047426844
:100B40005AB1C368016843B983688B4205D0491E16
:100B5000521CC0E90012002070474FF0FF30704770
:100B60002DE9F047814616468AB0334878440DC8CF
:100B70008DE80D0030487844801C03AC0DC884E833
:100B80000D0041F69B300844372190FBF1F290FBB9
:100B9000F1F5A5F1800501FB12041B3C02D564426E
:100BA000012000E00020DFF890A080460027FA44F2
:100BB000AAF1BE0A0DE0E00709D03246684607EB0D
:100BC00047010AEB810101F054F88DE80700641039
:100BD0007F1C002CEFD1184F7F44AC3F18E0E80792
:100BE00014D007EB04100DF1180A90E80E008AE803
:100BF0000E00C068F04201D198190890324606A94B
:100C000003A801F036F803AB83E807006D10641CFD
:100C1000002DE4D132466946B8F1000F03A802D096
:100C200000F0FFFF01E001F024F8C9E90001C9F874
:100C300008200AB0BDE8F087184A000030B5034626
:100C40001D781DB10A4603E0AC4201D1181A30BD2F
:100C500012F8014B002CF7D15B1CF1E730B50346CD
:100C60001D783DB10A4612F8014B1CB1AC42FAD1D5
:100C70005B1CF5E7181A30BD4FF0000200B51346B3
:100C800094469646203922BFA0E80C50A0E80C50AC
:100C9000B1F12001BFF4F7AF090728BFA0E80C505D
:100CA00048BF0CC05DF804EB890028BF40F8042B56
:100CB00008BF704748BF20F8022B11F0804F18BFC3
:100CC00000F8012B704700000048704734280020CE
:100CD0007546FFF7F9FFAE4605006946534620F01A
:100CE0000700854618B020B5FFF772FABDE820402E
:100CF0004FF000064FF000074FF000084FF0000BD8
:100D000021F00701AC46ACE8C009ACE8C009ACE88A
:100D1000C009ACE8C0098D467047000010B5FFF768
:100D200069FE001D10BD00BF253700002DE9FF4FF3
:100D3000064689B00878FF2806D0491C2D2805D022
:100D400000244FF0000908E000200CE00124F8E73F
:100D500009EB8903491C00EB43090878FF28F7D108
:100D600014B1C9F100008146107800252C46AA462E
:100D700029462D2801D02B2804D1521C2D2813D010
:100D8000002082468B461078FF280FD04FF0000CD1
:100D90000A21521CA5FB017804FB018105FB0C1103
:100DA000C5194BEB0104EEE70120EAE700210846F4
:100DB0004FF00000BAF1000F02D000EB80004008B5
:100DC000C0F38158B8F1010F01DD4FF0FF380C98E6
:100DD00009EB000755EA040009D04FF0020917F5A6
:100DE000FA7F0BDA4FEACA70C6E900B012E04FEAA8
:100DF000CA70C6E900B00DB0BDE8F08FB7F5FA7F54
:100E00000DDDF0487844D0E90010C6E9001040EA52
:100E1000CA707060FFF7F2FDC0F80090EBE7391E72
:100E200002DAC8F1000200E0424600DA794206A880
:100E3000FFF796FE06AB93E8070003AB83E80700D5
:100E400044F23E005BEA04010090584604D144F2AB
:100E50001E012C465D460091210C0904014306D178
:100E60000099240444EA15442D041039009104F03B
:100E70007F41014306D10099240244EA15642D0202
:100E80000839009104F07041014306D10099240112
:100E900044EA15742D01091F009104F040410143FB
:100EA00006D10099A40044EA9574AD00891E009112
:100EB00004F00041084304D100986D196441401EBC
:100EC000009042466846002FCDE9014503A902DDA6
:100ED00000F0E3FE01E000F0B8FEBAF1000F0446B6
:100EE0000D4601D084F0004440F2FF7724F000402A
:100EF000284303D0C4F30A50B84212D1FFF77EFD55
:100F0000C0F80090C4F30A50B8420AD1AE48784401
:100F1000D0E90010C6E9001004F0004108437060F9
:100F200069E7C6E9005466E72DE9FF4F1F464FF019
:100F3000000A4FF0FF38454691B0D7E90146CDF899
:100F40003CA0FFF757FDC0680168405C1090B9698C
:100F500012986D1C8847396A814688470028F6D167
:100F6000B9F1FF3F0AD0002E24F4D06411DDB9F1AD
:100F70002B0F08D0B9F12D0F0BD102E0404615B070
:100F80003AE744F48064B96912986D1C8847761E6C
:100F90008146600504A901D52D2000E02B20002EFC
:100FA00001F1010B0DF130088DF810003FDDB9F1B2
:100FB000690F08D0B9F1490F05D0B9F16E0F02D011
:100FC000B9F14E0F1CD13B4601A8009580E85002B4
:100FD000DDE912126FF0020004F003FAC11CCED159
:100FE0000EE0B96912986D1C884781461398761EE9
:100FF00044F4007405600F98401C002E0F9016DD1D
:10100000B9F1300FEDD0B9F1780F02D0B9F1580F26
:101010000DD10F9801280AD13B46CDE90054DDE9F6
:101020001212001F029604F0DAF9C11CA7D1109920
:1010300089453ED144F0800406E01399681CAAF16A
:10104000010A44F400740860B9696D1C1298761E98
:10105000884730288146F0D02BE01099894505D18A
:10106000200603D4761E44F0800418E0484601F0C0
:10107000AAFE08B3761E0DF123018B4544F40074DB
:1010800008D2A9F130000BF8010B200607D5AAF110
:10109000010003E0200602D40AF101008246A00507
:1010A00002D51399681C0860B96912986D1C8847AD
:1010B0008146002ED1DC53E0002E51DDB9F1650FE1
:1010C00002D0B9F1450F4BD1A00549D5B9696D1CC6
:1010D0001298761E24F440748847002E81460CDD59
:1010E0002B2804D0B9F12D0F07D144F48074B969CD
:1010F00012986D1C8847761E8146E00501D52D218A
:1011000000E02B2108F8011BCDF8008021E0761EBD
:101110000DF13901884544F400740CD2A9F1300076
:1011200010F0FF0088F8000002D10099884509D925
:1011300008F1010806E0E00501D5244801E042F28B
:101140000F708246B96912986D1C884781461398C2
:101150000560002E04DD484601F035FE0028D6D19A
:10116000F96912988847FF2053468BF8000088F8E9
:10117000000000200A900B9004AA0CA90AA8FFF70F
:10118000D5FDA00502D46FF00100F8E614F0240F9D
:101190000AD0E00714D13868DDE90A12031D3B606C
:1011A0000068C0E900120BE00AA9684601F0B4FD2E
:1011B000E00705D13868009A011D396000680260B7
:1011C0002846DCE6B8470000AE460000F1D8FFFF35
:1011D0000446AFF300802046FEF7E5FF4FF0013CE8
:1011E00050F8042B51F8043B9A4221D1A2EB0C0396
:1011F000934313EACC1317D150F8042B51F8043B56
:101200009A4215D1A2EB0C03934313EACC130BD1F2
:1012100050F8042B51F8043B9A4209D1A2EB0C037D
:10122000934313EACC13DBD04FF00000704700BFAC
:10123000D01A01BAB1FA81F101F0180122FA01F0D5
:10124000CB40C1F12001DBB2C0B2C01A2CFA01F3CD
:10125000D11A914311EAC311E6D170472DE9FF4F2E
:101260001F464FF03C0987B04FF00042DDE91410F3
:1012700001F10108DDF858A002EA40500390002077
:1012800004908346054604460590B969461E0898B1
:101290008847AAF1010A0290BAF1000F37DD0298DF
:1012A0002E2815D0102100F012FA00282ADB4FF06A
:1012B000010B0499014316D0B9F1000F0BDB4A462C
:1012C000C11700F0F1F905430C43A9F1040905E049
:1012D0000120059007E008B145F0010501200490C8
:1012E000059800B9361DB969089808F101088847C2
:1012F000BBF1000FAAF1010A0290CDD00999C1F803
:101300000080C9E70298702808D0502806D0F969F3
:1013100008988847BBF1000F14D04FE000200290DE
:101320000120BBF1000F049009D0B969089808F1B9
:1013300001088847AAF10109B9F1000F07DCF96932
:10134000089888476FF001000BB0BDE8F08F2B289C
:1013500004D02D280CD14FF0FF300490B9690898C3
:1013600008F101088847A9F10109B9F1000FE6DD8C
:10137000411CE4D00A2100F0AAF90028DFDB029921
:1013800008F1010801EB810100EB41000290B9690D
:10139000089888470A2100F09AF9099AA9F10109E9
:1013A000B9F1000FC2F8008001DD0028E7DAF96921
:1013B000089888470499029800FB016655EA0400E2
:1013C00004D004F04041090002D006E0039898E000
:1013D000A40044EA9574AD00B61E04F00041080074
:1013E00002D16D196441761E159810F0240F03D0B8
:1013F0004FF00B095C4803E04FF028096FF07D00C7
:101400008246564507DAAAEB06018944B9F1410F35
:1014100001DD4FF0410901200021A9F1010200F096
:1014200043F9024628400B462140084301D00121E0
:1014300000E00021501E029143F1FF31284021407D
:10144000084301D0012000E000200299834651EAC0
:101450000B014FD0002108464FF00000039900F423
:10146000400039B100EB80004FF4400100EBD07038
:1014700001EA60008015012802DD4FF0FF3000E036
:1014800013D0401C36D0029860B3BBF1000F0CD1D2
:101490004A460120002100F007F928402140084376
:1014A00001D0012000E00020E0B101204A460021E7
:1014B00000F0FAF8034640190A4661412D1A8C41A2
:1014C00011D3B9F1400F09DD159810F0240F02D0A7
:1014D000AAF1340603E0AAF1170600E0761C002505
:1014E0004FF0004406E05B1E42F1FF3220EA0305A4
:1014F00021EA0204CAF10100B04206DA1B4903984E
:1015000008430190002000900EE0039AC4F3D32119
:10151000E80A0A43164940EA44500A433146CDE9F5
:101520000002684601F044FC159810F0240F0BD01F
:101530001598C00715D13868DDE90012031D3B601E
:101540000068C0E900120CE002A8694601F0E4FB63
:101550001598C00705D13868029A011D39600068E6
:1015600002604046F0E6000002FCFFFF0000F07F52
:101570000000F03F2DE9FF4F92461D4685B04FF029
:101580000041DDE9124BDDE914727F1E01EA4B5088
:10159000414940F0FF4940EA0108002122F02000C3
:1015A0004928049102D04E2828D04CE03BA00126C7
:1015B00007C88DE80700A9690698641C88477F1E44
:1015C000014606D41DF8060018B121F02001814221
:1015D0000BD0E96906988847032E34D0082E32D004
:1015E0006FF0010009B0BDE8F08F761C032E01D02A
:1015F000082EE0D1601CCAF80000DCE7A969069853
:10160000641C88477F1E2AD420F02000412826D160
:10161000A9690698641C88477F1E20D420F020000A
:101620004E281CD1A9690698641C88477F1E48F47F
:10163000002849F48009CAF8004001D4282806D0BF
:10164000E969069888475FEACB7012D022E0A96961
:101650000698641C88477F1E01D4002803DAE969D4
:1016600006988847BCE72928F1D1641CCAF80040D5
:10167000E9E71BF0240F07D028680499031D2B60AD
:101680000068C0E9001805E02868021D2A600068AB
:10169000C0F800902046A5E70000F07F494E46497B
:1016A0004E49545900000000B2F120030AD5C2F19E
:1016B000200301FA02F120FA03F300FA02F041EAF2
:1016C0000301704700FA03F14FF0000070473A2819
:1016D00000D2303820F02002412A01D3A2F1370095
:1016E000884201D34FF0FF3070475FEA400C08BFDB
:1016F00091F0000F4FEA8C234FEAC12243EA515187
:101700004FEA1C5018BF00F5F0404FEA300018BFF8
:1017100041F000415FEA6C5C00F02980BCF1FF3FC2
:1017200008BF40F080407047130C06BF12044FF012
:10173000100C4FF0000C130E04BF12020CF1080C39
:10174000130F04BF12010CF1040C930F04BF92009D
:101750000CF1020CD30F04BF52000CF1010C114626
:101760004FF00002A0F11F00A0EB0C00704711F039
:10177000004F08BF704731F000413FF4D5AF0B0C6C
:1017800006BF09044FF0100C4FF0000C0B0E04BF05
:1017900009020CF1080C0B0F04BF09010CF1040C39
:1017A0008B0F04BF89000CF1020CCB0F04BF490062
:1017B0000CF1010CCCF12003A0EB0C0022FA03F396
:1017C00002FA0CF241EA030100F10100704720F037
:1017D0007F4C80EA030023F07F47ACEB070303F55F
:1017E0007C5300F0004003F1FF032DE980494FEAEC
:1017F000154B09B44FEA144325EA0B4E24EA03487B
:101800000FF2042606EB132749083E785FEA3202FE
:1018100003FB0667C7F5000707FB06F64FEA5437D8
:101820004FEAD64606F1020607FB066CCCF1005CD7
:101830004FEA1C472CEA074C07FB06F40CFB06F5A5
:1018400004EB15464FEA961634BF00204FF00040D7
:101850004FEAD13706FB07FC4FEA1C4C0CFB0BF799
:10186000D21B03FB0CF761EB07010CFB0EF7B0EB8F
:10187000074072EB17420CFB08F734BFA2EB07429C
:10188000B2EB074261EB17414FEA0C444FEA910774
:1018900006FB07FC4FEA1C4C0CFB0BF7B0EBC740F8
:1018A00072EB573203FB0CF734BFA2EBC742B2EB2B
:1018B000C74261EB57310CFB0EF7B0EBC70072EB80
:1018C00057720CFB08F734BFA2EBC702B2EBC7029A
:1018D00061EB5771039F4FEA816141EA921104EB7A
:1018E000CC044FEAD1374FEA826206FB07FC42EA9A
:1018F00090124FEA80604FEA1C4C0CFB0BF7D21B96
:1019000003FB0CF761EB07010CFB0EF7B0EB074094
:1019100072EB17420CFB08F734BFA2EB0742B2EBA5
:10192000074261EB17414FEA8C554FEA910704EBF0
:101930009C2406FB07FC4FEA1C4C0CFB0BF7B0EB9E
:10194000C74072EB573203FB0CF734BFA2EBC74220
:10195000B2EBC74261EB57310CFB0EF7B0EBC7009F
:1019600072EB57720CFB08F734BFA2EBC702B2EB65
:10197000C70261EB577115EB4C254FEA816141EAD3
:1019800092114FEA82624FEAD13742EA901206FB87
:1019900007FC44F100044FEA80604FEA1C4C0CFB4A
:1019A0000BF7D21B03FB0CF761EB07010CFB0EF7E7
:1019B000B0EB074072EB17420CFB08F734BFA2EB09
:1019C0000742B2EB074261EB174115EB1C154FEADA
:1019D000813141EA92414FEA823242EA90424FEA33
:1019E00080304FEA0C7644F1000448EA03434EEAA3
:1019F0000B484FF0000EB2EB080C71EB030724BF4D
:101A0000624639464EEB0E0E4FF0000B0018524165
:101A100049414BEB0B0BB2EB080C71EB03077BF16D
:101A2000000B24BF624639464EEB0E0E4FF0000B02
:101A30000018524149414BEB0B0BB2EB080C71EB18
:101A400003077BF1000B24BF624639464EEB0E0EB6
:101A500051EA020718BF46F0010616EB0E7655F163
:101A6000000254F1000103D5BDE88901BDE80088FA
:101A7000BDE88901BDE80048B619524141EB0101BA
:101A8000A3F10103704780807F7E7D7C7B7A79782B
:101A9000777676757473727171706F6E6E6D6C6C33
:101AA0006B6A6A69686867666665646463636261D5
:101AB0006160605F5F5E5E5D5D5C5C5B5B5A5A5956
:101AC00059585857575656555555545453535252C2
:101AD0005251515050504F4F4F4E4E4D4D4D4C4C1A
:101AE0004C4B4B4B4A4A4A49494948484847474763
:101AF00047464646454545444444444343434342A0
:101B0000424242414141000046EA0646A3F5705375
:101B10004FEA164646EA42564FEAD22242EA41527C
:101B200010B54FEAD121A3F1010300F017F820F01E
:101B3000004000F1010C00F0004701EB005011469D
:101B4000BCF5006F40EA070000D210BD02484FF01C
:101B5000000140EA070010BD0000F07F002B26D4F2
:101B6000770021D01CB54FEA370703B44FF01000BF
:101B70004FF010014FF000000FBCBDE810400BF11A
:101B8000010BBBF1010F08BF5FEA170722BF12F17B
:101B9000010211F101014FF0004143F1000300F097
:101BA000004043EA00007047F9D35708DAE746EAF5
:101BB000064613F1400F4FEA16461FDD13F1200FC2
:101BC000DFBF16430A46002120335B42C8D0C3F171
:101BD000200746EA064602FA07F74FEA164646EAA3
:101BE0000706C3F1200722FA03F201FA07F721FAE8
:101BF00003F14FF0000342EA0702B1E746EA0206AA
:101C000046EA06464FEA164646EA0106BCBF46EAE1
:101C10000646360C4FF000034FF000024FF0000173
:101C20009EE72DE9C048934630B491E8380007C8D4
:101C300031EA400C48BF34EA430C03D5FFF7C7FD37
:101C4000FFF78CFFF0BCBDE800882DE9C048934643
:101C500030B491E8380007C831EA400C48BF34EA94
:101C6000430C03D5FFF7B3FDFFF74EFFF0BCBDE813
:101C700000882DE9C048934630B491E8380007C881
:101C800010F0804F08BF13F0804F03D100F019F817
:101C9000FFF764FFF0BCBDE800882DE9C04893461B
:101CA00030B491E8380007C810F0804F08BF13F037
:101CB000804F03D100F005F8FFF726FFF0BCBDE828
:101CC000008820F07F4780EA030023F07F4C07EB79
:101CD0000C03A3F57C5300F00040A3F1FE0392F047
:101CE000000F00F0B38095F0000F00F077802DE931
:101CF00001494FEA11404FEA144621EA004800FB2F
:101D000006FC24EA064708FB06F607FB08F800FB7A
:101D100007F718EB06484CEB164C4FEA124B18EB42
:101D200007484FEA15464CEB174022EA0B4E0BFBD7
:101D300006FC25EA06470EFB06F607FB0EFE0BFB2C
:101D400007F71EEB064E4CEB164C4FF000061EEB51
:101D5000074E4CEB174B18EB0B0840F1000018EB4B
:101D60000E0B58EB000840F100008F1A4FF00001F5
:101D70003CBFC943661B14BFB5EB040C00213CBF3C
:101D8000C943F61B4FEA17444EEA8E0E27EA044574
:101D90004FEA1C4704FB07622CEA074C05FB07F7D8
:101DA0000CFB05F604FB0CFC16EB074642EB174256
:101DB00016EB0C4642EB1C421BEB060658EB0202EC
:101DC000414146EA9E0601D5BDE80189B619524156
:101DD00041EB0101A3F10103BDE801894FEA14457C
:101DE0004FEA114724EA054621EA074C05FB07F4B0
:101DF00006FB07F70CFB06F105FB0CFC11EB07419A
:101E000044EB17444FEA124711EB0C4144EB1C44DE
:101E100022EA074C05FB07F206FB07F70CFB06F668
:101E200005FB0CFC16EB074642EB174216EB0C4683
:101E300042EB1C456A1854F1000148BF7047B619BF
:101E4000524141EB0101A3F10103704795F0000FEE
:101E500037D04FEA11424FEA144721EA024624EAFA
:101E6000074C02FB07F106FB07F70CFB06F402FB2D
:101E70000CFC14EB074441EB17414FEA154714EBF8
:101E80000C4441EB1C4125EA074C02FB07F506FB1D
:101E900007F70CFB06F602FB0CFC16EB074645EBBE
:101EA000174516EB0C4645EB1C42121951F1000187
:101EB00048BF7047B619524141EB0101A3F101033C
:101EC00070474FEA14454FEA114724EA054621EAD4
:101ED000074C05FB07F106FB07F70CFB06F24FF07A
:101EE000000605FB0CFC12EB074241EB174112EB1D
:101EF0000C4251EB1C4148BF7047921841EB010165
:101F0000A3F10103704700BFFEE7000010B50024F5
:101F100004E0601CC4B2012000F0B0FF2021104892
:101F200000F0DBF908B1642CF3DB002404E0601C52
:101F3000C4B2012000F0A2FF2021094800F0CDF931
:101F400008B9642CF3DB282000F098FF2021044816
:101F500000F0C3F908B1012010BD0020FCE700002B
:101F6000000C014070B50024002506E06006040E58
:101F7000FFF7CCFF0443681CC5B2082DF6DB2046F2
:101F800070BD00007CB505460E4600BF20211448F8
:101F900000F0A3F90028F9D0002405E0FFF7E2FFE4
:101FA0000DF80400601CC4B2052CF7DB9DF800009E
:101FB0009DF8011008449DF8021008449DF8031094
:101FC00008449DF80410884209D19DF8000003F0F0
:101FD0005DF830609DF8020003F058F828607CBD81
:101FE000000C0140F8B505460E46002401210820EA
:101FF00000F034FB2020ADF8000010208DF8030025
:1020000003208DF8020069461F4800F0DBF820210C
:102010001D4800F06DF90A2000F012FF20211A4837
:1020200000F064F9142000F00BFF2021164800F0A6
:102030005FF91E2000F022FF2021134800F058F91C
:102040000121082000F00AFB2020ADF80000482004
:102050008DF8030003208DF8020069460A4800F05D
:10206000B1F804E0012000F009FF601CC4B2202197
:10207000054800F032F908B1502CF3DB3146284610
:10208000FFF780FFF8BD0000000C01407047000022
:1020900010B5012000F0D4FE082000F015F848B17A
:1020A0000821054800F019F920B901F02BFF08209C
:1020B00000F004F810BD0000000C01400149086068
:1020C0007047000014040140014600200022074B25
:1020D0001B6803EA0102054B14331B680B4013B164
:1020E0000AB1012000E00020704700000004014018
:1020F000002123498279002A3AD00A4612680368EF
:102100009A430B461A600A1D126803689A430B1D16
:102110001A60027911440A6803681A430A60184A6F
:102120000832126803689A43154B08331A601A1D67
:10213000126803689A43124B0C331A604279102AD2
:102140000ED11A1F126803681A430D4B08331A6028
:102150001A1D126803681A43094B0C331A600DE00C
:102160000749427911440A6803681A430A6005E086
:10217000027911440A6803689A430A6070470000B4
:102180000004014030B500228B071C0F0F2303FA17
:1021900004F20B4B8C1053F824309343084C8D10F1
:1021A00044F8253023468C1053F824308C07240F34
:1021B00000FA04F42343024C8D1044F8253030BD5E
:1021C000080001402DE9F0410246002500260020CC
:1021D00000230024002791F803C00CF00F0591F8AC
:1021E00003C00CF0100CBCF1000F03D091F802C03A
:1021F0004CEA050591F800C0BCF1000F31D014681D
:1022000000202BE04FF0010C0CFA00F3B1F800C0F5
:102210000CEA03069E4220D183004FF00F0C0CFA0B
:1022200003F7BC4305FA03FC4CEA040491F803C02D
:10223000BCF1280F06D14FF0010C0CFA00FCC2F8DB
:1022400014C00AE091F803C0BCF1480F05D14FF06B
:10225000010C0CFA00FCC2F810C0401C0828D1D3B5
:102260001460B1F800C0BCF1FF0F34DD54680020E9
:102270002EE000F1080C4FF0010808FA0CF3B1F859
:1022800000C00CEA03069E4221D183004FF00F0CE0
:102290000CFA03F7BC4305FA03FC4CEA040491F87A
:1022A00003C0BCF1280F05D100F1080C08FA0CF8A6
:1022B000C2F8148091F803C0BCF1480F07D100F1B7
:1022C000080C4FF0010808FA0CF8C2F81080401C06
:1022D0000828CED35460BDE8F08102460020936800
:1022E0000B400BB1012000E00020704741617047B6
:1022F0000161704700BFFEE710B500200F4908607C
:102300000F48006820F00F000D490860084600687B
:1023100040F00700086000200A49C1F8A00102202F
:1023200000F0ACFD012005490860022000F0A6FD88
:1023300000200449C1F89C0110BD00009C8121428D
:10234000040C01400080214208B50121082000F062
:1023500085F94FF4C070ADF8000010208DF803002F
:1023600003208DF8020069460448FFF72BFF012087
:10237000034908600349C1F8A00108BD000C0140F1
:102380009C8121420080214210B500200F49086045
:102390000F48006820F00F000D49086008460068EB
:1023A00040F00700086001200A49C1F8A00102209E
:1023B00000F064FD012005490860022000F05EFD88
:1023C00000200449C1F89C0110BD00009C812142FD
:1023D000040C01400080214270B5054600241748D6
:1023E000006820F00F00154908600846006840F0BA
:1023F00004000860002616E0002011490860022051
:1024000000F03CFD01200F49C1F89C016006040E5C
:102410000B487C38006808B1601CC4B2012000F091
:102420002DFD701CC6B2082EE6DB15B9FFF7ACFF18
:1024300001E0FFF761FF204670BD0000040C014081
:102440009C8121420080214270B5044615480068F5
:1024500020F00F00134908600846006840F00700AC
:102460000860002010490860002517E0E0090E49C7
:10247000091D08606006040E022000F0FFFC012028
:102480000A49C1F89C01022000F0F8FC002006492E
:102490000860022000F0F2FC681CC5B2082DE5DBE4
:1024A00070BD0000040C01409C812142008021424B
:1024B00010B50F48006820F00F000D49086008466D
:1024C000006840F00700086001200A4908600A49D6
:1024D000C1F89C01042000F0D1FC002005490860EF
:1024E000042000F0CBFC00200349C1F89C0110BD82
:1024F000040C0140A08121420080214210B50F4808
:10250000006820F00F000D4908600846006840F0A0
:102510000700086000200A4908600A49C1F8A001C4
:10252000042000F0ABFC0120054908600549C1F812
:10253000A001042000F0A2FC10BD0000040C01402A
:102540009C8121420080214210B50024144800687B
:1025500020F00F00124908600846006840F00400AF
:10256000086001200F49086000F088FC01200E4936
:10257000C1F89C0100F082FC07E0601CC4B2FA2C98
:1025800003DDFFF7BBFF012010BD0648803800685F
:102590000028F2D10349091F086000BFF4E70000DA
:1025A000040C0140A08121420080214200BFFEE7CF
:1025B0007047000070B5002100230F22C47804B3D7
:1025C000154C246804F4E064C4F5E064210AC1F108
:1025D0000403CA40447804FA03F184781440214388
:1025E00009010E4C0678A155047804F01F0501245A
:1025F000AC4005786D11AD0005F1E025C5F800414E
:1026000009E0047804F01F050124AC40044D06786D
:10261000761145F8264070BD0CED00E000E400E0C6
:1026200080E100E002490143024A11607047000066
:102630000000FA050CED00E07047000029B1064AE1
:10264000D2690243044BDA6104E0034AD26982434F
:10265000014BDA61704700000010024029B1064AC0
:1026600092690243044B9A6104E0034A92698243EF
:10267000014B9A61704700000010024030B5002104
:102680000022002400232D4D6D6805F00C0121B1BE
:10269000042905D0082923D105E0294D056022E051
:1026A000274D05601FE0254D6D6805F47012234D20
:1026B0006D6805F48034022505EB92421CB9214D6A
:1026C000554305600BE01D4D6D6805F400351DB1E7
:1026D0001C4D5543056002E0194D5543056002E06D
:1026E000174D056000BF00BF144D6D6805F0F00187
:1026F0000909154D6B5C0568DD4045600F4D6D683F
:1027000005F4E061090A104D6B5C4568DD408560A9
:102710000A4D6D6805F46051C90A0B4D6B5C456844
:10272000DD40C560054D6D6805F44041890B074DDE
:102730006B5CC568B5FBF3F5056130BD0010024068
:1027400000127A0000093D003400002044000020FF
:10275000704710B500F002F810BD00000CB5002065
:10276000019000903348006840F48030314908609F
:1027700000BF3048006800F4003000900198401C11
:102780000190009818B90198B0F5A06FF1D12948CF
:10279000006800F4003010B10120009001E000203A
:1027A00000900098012843D12348006840F01000B1
:1027B000214908600846006820F0030008600846C8
:1027C000006840F0020008601A48406819494860F3
:1027D0000846406848600846406840F480604860A9
:1027E0000846406820F47C1048600846406840F481
:1027F000E81048600846006840F08070086000BF3C
:102800000C48006800F000700028F9D009484068C2
:1028100020F00300074948600846406840F0020085
:10282000486000BF0348406800F00C000828F9D158
:102830000CBD00000010024000200240042808D116
:102840004FF0E021096941F004014FF0E0221161ED
:1028500007E04FF0E021096921F004014FF0E02288
:10286000116170477047000010B51348006840F0D0
:1028700001001149086008464068104908400E49A7
:102880004860084600680E4908400B490860084641
:10289000006820F4802008600846406820F4FE00AC
:1028A00048604FF41F008860FFF753FF4FF000604F
:1028B0000449086010BD0000001002400000FFF84D
:1028C000FFFFF6FE08ED00E010B501210A4800F018
:1028D0002CF878B10121084800F018F800F018FB36
:1028E00006490748FFF77EFB0649074800F08AFEC5
:1028F00001F0C4FB10BD00000004004008000020EF
:10290000040000201400002010000020CA430282AE
:10291000704721B1028842F00102028004E002887F
:102920004FF6FE731A400280704730B50246002011
:1029300000230024158A05EA0103958905EA0104AC
:1029400013B10CB1012000E0002030BD1AB1838921
:102950000B43838102E083898B43838170470000AE
:10296000002202881D4B98420ED01D4B98420BD07E
:10297000B0F1804F08D01B4B984205D01A4B9842BB
:1029800002D01A4B984204D14FF68F731A404B88ED
:102990001A43174B984207D0164B984204D04FF673
:1029A000FF431A40CB881A4302808B8883850B88AB
:1029B00003850A4B98420BD0094B984208D00E4B26
:1029C000984205D00D4B984202D00D4B984201D150
:1029D0000B7A03860123838270470000002C01409C
:1029E000003401400004004000080040000C00409A
:1029F000001000400014004000400140004401402D
:102A00000048014010B540F225511D4800F09BF8E8
:102A100010B31B4800F052F9C4B21A48008800F401
:102A20000040C8B91748008800F4804060B10A2C03
:102A300003D000201349088020E01248008840F4A9
:102A400000401049088019E00D2C06D10D4800887F
:102A500040F480400B49088010E00A480088C0F329
:102A60000D0009490C5407480088401C054908809E
:102A700008460088C72801DD0020088010BD00003E
:102A8000003801404C0000206C00002010B509E027
:102A9000084800F013F9084908700846017807480B
:102AA00000F011F92021034800F040F80028EFD190
:102AB00010BD00000044004000000020003801402C
:102AC00010B520210F4800F031F868B10D4800F032
:102AD000F5F8C1B20C4802780078401C0A4B187017
:102AE0000A48006881540CE02021064800F01EF8D6
:102AF00038B1044800880348001D008801200449BB
:102B0000087010BD00480040200000202400002074
:102B10002100002021B1828942F40052828104E028
:102B200082894DF6FF731A40828170470246002069
:102B3000B1F5007F00D100BF13880B400BB101201D
:102B400000E00020704770B50246002400230025F5
:102B5000002040F66A16B14200D100BFC1F3421511
:102B600001F01F03012606FA03F3012D02D1968915
:102B7000334006E0022D02D1168A334001E0968AE6
:102B800033400C12012606FA04F41688344013B1BF
:102B90000CB1012000E0002070BDF0B50346002418
:102BA00000260025002040F66A17B94200D100BF78
:102BB0001846C1F3421401F01F06012707FA06F573
:102BC000012C01D10C3004E0022C01D1103000E0C6
:102BD00014301AB107682F43076002E00768AF435B
:102BE0000760F0BD2DE9F04786B005460E4600248B
:102BF000A24600BFA1460027B08900B100BF2F4602
:102C00002C8A4CF6FF700440F08804432C82AC8977
:102C10004EF6F3100440B0883189084371890843A7
:102C20000443AC81AC8A4FF6FF400440B0890443B2
:102C3000AC8201A8FFF722FD1F48874202D1DDF8D0
:102C400010A001E0DDF80CA0A88900F4004040B11C
:102C50000AEBCA0000EB0A1031684900B0FBF1F83A
:102C600007E00AEBCA0000EB0A1031688900B0FBEC
:102C7000F1F86420B8FBF0F004012009642101FBA5
:102C80001089A88900F4004040B1322000EBC9004F
:102C9000B0FBF1F000F00700044308E0322000EB45
:102CA00009106421B0FBF1F000F00F0004432C8107
:102CB00006B0BDE8F0870000003801400146888872
:102CC000C0F308007047C1F308028280704700BF5C
:102CD000FEE7490050EAC12018BF04204A0D18BF82
:102CE00040F0010040F2FF72B2EB515F08BF40F0CC
:102CF0000200012808BF0520704740F20132002081
:102D00004FF0E04102F03BBB024A0020110702F005
:102D100036BB000001FDFFFF10B50446D1E90001FC
:102D200000F002F8206010BDF8B504460D466A4672
:102D300000F0C2F800987E30009000281FDC0022CE
:102D400013462046294601F0DDFD18D0002140F64B
:102D500008004FF0000006462046294601F08CFB93
:102D6000044640F6080006EA00014FF0000034F087
:102D7000004004BF0220FDF761FB2046F8BD00982B
:102D8000FF280DDB0220FDF759FB002213462046E9
:102D9000294601F02DFF8CBF04484FF0FF40F8BDDD
:102DA00020462946BDE8F84001F066BB000080FFE0
:102DB00010B504460A46D4E90003194600F012FA99
:102DC000C4E9000110BD30380A2801D20120704743
:102DD00000207047014600BF704730B583B00446FD
:102DE000FDF727FB05460020CDE9000002462146FD
:102DF0006846FDF789FD2846FDF720FBDDE9000167
:102E000003B030BD10B504466FF00400FFF716FDA7
:102E1000E11704EB5171C1F3C701074A1170104665
:102E2000007800EB4001C1EBC0104FF6FF7101EAE2
:102E3000C0000249088010BD4E0000205000002054
:102E400001460D4A12884A434FF0E0235A6100229E
:102E50009A6101221A6100BF4FF0E022106900F070
:102E600001021AB100F48032002AF5D000224FF09E
:102E7000E0231A619A6170475000002001460D4A14
:102E800012784A434FF0E0235A6100229A610122EE
:102E90001A6100BF4FF0E022106900F001021AB180
:102EA00000F48032002AF5D000224FF0E0231A61AE
:102EB0009A6170474E00002010B51446002222602F
:102EC000114A21F000439342A8BF10BD53EA00020B
:102ED00008BF10BDB3F5801FA8BF226807DA3622ED
:102EE00002F04DFA6FF0350221F000432260DFF866
:102EF0001CC06FF31E510CEB23531A4441F0FF51D9
:102F000041F00051226010BD0000F07F02FCFFFF85
:102F10002DE9F04FC9B0012240F225516348FFF777
:102F20003CFE012240F224416048FFF736FE0121B9
:102F30005E48FFF7EFFD0120FFF782FF00205C49AC
:102F400008705C49087000BF5A4800780028FBD020
:102F50000020574908705749087000BF554800784D
:102F60000028FBD0002240F225515048FFF715FE03
:102F7000002240F224414D48FFF70FFE00214B484C
:102F8000FFF7C8FD0120FFF75BFF00204A490968F1
:102F9000474A12788854464802784748016809A889
:102FA000FDF718FA45A109A8FDF7EAF9089043A131
:102FB0000020FDF7E5F9089040A10020FDF7E0F9B9
:102FC00008903EA10020FDF7DBF908900898FFF774
:102FD00004FF06460F4639A10020FDF7D1F90890FD
:102FE00036A10020FDF7CCF908900898FFF7F5FE10
:102FF00004460D460022324B2046294601F02AFBAA
:1030000004460D4600222E4B3046394601F022FB85
:1030100006460F4606AA2046294600F027FF8046AE
:103020000022274B01F0E6FC0022264BCDE90001EF
:1030300001F010FBCDE90201DDE9062301F04EFAB3
:10304000824601F019FA2049086004AA3046394640
:1030500000F00CFF00221A4BCDE9000101F0CAFC80
:1030600080460022174B01F0F5FA8246DDE9042381
:1030700001F034FACDE9020101F0FEF913490860CC
:1030800000211148006802F015F805D310490E48D8
:10309000006802F00FF905D20E480B4908600E488F
:1030A0000A49086049B0BDE8F08F000000480040C0
:1030B0002000002021000020240000202C0000001F
:1030C0000000594000004E40180000201C00002065
:1030D0000000344378D6F7426F673D4200B587B0B1
:1030E00001210820FFF7BAFA01218804FFF7A6FAA8
:1030F0004FF48060ADF8180003208DF81A001820F6
:103100008DF81B0006A91848FFF75CF84FF4006023
:10311000ADF8180004208DF81B0006A91248FFF72F
:1031200051F827208DF8040002208DF805008DF855
:10313000060001208DF8070001A8FFF73BFA4FF4C5
:10314000E13002900020ADF80C00ADF80E00ADF8B3
:103150001000ADF814000C20ADF8120002A90348CD
:10316000FFF740FD07B000BD000C014000480040E3
:103170001FB501210846FFF771FA01210820FFF76A
:103180006DFA03210120FEF7FDFF082001900020C9
:103190008DF808000C208DF8090001208DF80A0038
:1031A00001A8FEF7A5FF09208DF8000000208DF88A
:1031B00001008DF8020001208DF803006846FFF73A
:1031C000F9F90820FEF77AFF0820ADF80C00482036
:1031D0008DF80F0003A90248FEF7F4FF1FBD0000A1
:1031E000000C01402DE9F04106460C4640F2FF7507
:1031F000174635EA14502BD000221346304601F012
:1032000081FB25D03A463046214602F0B8F8064602
:103210000C4635EA145010D000221346304601F017
:1032200071FB15D10220FDF709F9FFF76DFD0A4684
:10323000214662F31E01BDE8F0810220FDF7FEF891
:10324000FFF75BFD0A46214662F31E01BDE8F081EF
:1032500030462146BDE8F081C0B01B49C1F800D01E
:1032600000201A4908701A4908701A481A4908605B
:103270001A481B4908601B481B49086017481B492E
:1032800008601B481B4908601B481C4908601CA0BB
:103290001D4908604FF4A060FFF7C4F90820FFF74C
:1032A000B1FD4FF4E13001F06BF84FF4165001F02E
:1032B0001BF8FFF713FFFFF75BFF00F0E5FF00F0DF
:1032C000FFF800BFFEE700002400002020000020DF
:1032D000210000200000F041040000200000A04177
:1032E000080000200000C842100000201400002048
:1032F00078D6F742180000206F673D421C0000207E
:1033000068656C70210000000C00002070B5044658
:10331000FFF7CEF8AE20FFF797F8FFF715F900B1E9
:1033200019E02046FFF790F8FFF70EF900B112E020
:10333000FFF7BEF8AF20FFF787F8FFF705F900B1F8
:1033400009E00020FFF748F80546FFF71DF8FFF7F2
:10335000D5F8284670BDFFF7D1F80020FAE770B520
:1033600005460C46FFF7A4F8AE20FFF76DF8FFF70F
:10337000EBF800B111E02846FFF766F8FFF7E4F834
:1033800000B10AE02046FFF75FF8FFF7DDF800B173
:1033900003E0FFF7B3F8012070BDFFF7AFF800209E
:1033A000FAE770B505460C460020FFF7AFFF012095
:1033B000FFF7ACFFFFF77CF8AE20FFF745F8FFF70B
:1033C000C3F800B12AE02846FFF73EF8FFF7BCF843
:1033D00000B123E0FFF76CF8AF20FFF735F8FFF7F7
:1033E000B3F800B11AE00120FEF7F6FF20700120CB
:1033F000FEF7F2FF60700120FEF7EEFFA0700120E3
:10340000FEF7EAFFE0700120FEF7E6FF20710020E2
:10341000FEF7E2FF6071FFF771F800BFFFF76EF88B
:1034200070BD000008B501210820FFF717F94FF41F
:103430008040ADF8000048208DF8030069461A4826
:10344000FEF7C0FEFEF780FF00F030F8C02102203A
:10345000FFF785FF00210320FFF781FF00210420F3
:10346000FFF77DFF00210520FFF779FF00210620EF
:10347000FFF775FF0F210820FFF771FF03210920D7
:10348000FFF76DFF27210A20FFF769FF24210C2099
:10349000FFF765FF24210D20FFF761FF7F2110203A
:1034A000FFF75DFF08BD0000000C014010B5402192
:1034B0000920FFF754FF40210920FFF750FF10BDFE
:1034C000F0B585B0FFF7AEFF294D00264FF4FA7036
:1034D00028490860002435E000BF2748006801281B
:1034E000FBD003A90720FFF75CFF9DF80C008007C5
:1034F000800B9DF80D1040EA01209DF80E10084346
:103500001E4941F824009DF80F008007800B9DF8AC
:10351000101040EA01209DF811100843184941F8A5
:103520002400164850F82400A84202D2134850F84C
:103530002450124850F82400B04202D90F4850F8E5
:103540002460641C0B4800688442C5DB0B4850F8BB
:1035500024700C480C490D4A0D4BCDE90021029016
:10356000064A04480168064800F04EF905B0F0BD6F
:10357000FFFF03005400002024812142642000202A
:103580009418002064000020600000205C000020EF
:103590005800002010B504460BE021780748FFF7DB
:1035A00092FB00BF40210548FFF7C0FA0028F9D080
:1035B000641C20780028F0D110BD000000380140C4
:1035C0002DE9F84705460C4616461F46DDE90A9ADE
:1035D000DDF824803B46324621462846CDF800805F
:1035E00000F092FB4B4632462146284600F0C9FBCC
:1035F0002068504501DA206800E050462060BDE8B0
:10360000F88700002DE9F04F89B081468A460020F6
:1036100006900590032004904FF4FA7070490860FA
:10362000D4E000246F4FA046C820FFF709FC6424B3
:1036300020E06D4850F82410A4F164006A4A42F872
:1036400020106A4850F82410A4F16400674A42F838
:103650002010654850F82400B84202D2624850F861
:103660002470614850F82400404502D95E4850F863
:103670002480641CB4F5FA7FDBDB4FF4C8747BE074
:10368000601E594951F8205000BF59480068012870
:10369000FBD007A90720FFF784FE9DF81C008007D8
:1036A000800B9DF81D1040EA01209DF81E10084374
:1036B0004D4941F824009DF81F008007800B9DF8BC
:1036C000201040EA01209DF821100843474941F8A5
:1036D0002400454850F82400A8421DD9424951F819
:1036E0002410481B01F0D2FC8346A8EB070001F030
:1036F000CDFC01460390584601F0D2FB83463D497C
:10370000584601F00BFD8346584601F08BFC361AF3
:10371000002E1EDA00261CE0334951F82410681AE6
:1037200001F0B4FC8346A8EB070001F0AFFC0146B2
:103730000390584601F0B4FB83462E49584601F0E9
:10374000EDFC8346584601F06DFC0644FF2E00DD7B
:10375000FF262948007801280AD1284800687828DF
:1037600006DA26480078069025480078059002E0A1
:10377000002006900590641CB4F5FA7F80DB1E489B
:103780001E49204A1E4BCDE900210290164A1448DA
:103790000168164800F038F818480068002802DA76
:1037A00066201649086016480068002802DA612081
:1037B000134908601148006801F050FCC9F8000086
:1037C0000F48006801F04AFCCAF800000498411E46
:1037D000C9B2049100287FF424AF09B0BDE8F08F8E
:1037E00054000020FFFF03006420002094180020F4
:1037F0002481214200007F436400002060000020FB
:10380000580000205C0000202DE9FF4FC6B088461C
:10381000994600204590002406E0469850F8241070
:10382000459808444590641C4445F6DB4598B0FB38
:10383000F8F04590002408E0469850F82410459888
:10384000081AFE4941F82400641C4445F4DB0024B6
:1038500017E0FA4850F824100246601C52F8200085
:103860000144A01C52F820000144E01C52F8200042
:103870000F183846F91707EB9171891042F8241098
:10388000641CB4F5F87FE4DB00240AE0EB49601C1B
:1038900051F8200051F82410401AE94941F8240059
:1038A000641CB4F5F77FF1DD00240EE0E44951F823
:1038B00024200B46611C53F82110501800EBD071E6
:1038C00049101A4642F82410641CB4F5F77FEDDB6A
:1038D00000251BE0002043902C460BE0D84850F810
:1038E0002410601BD74A32F81020439801FB1200C5
:1038F0004390641C681D8442F0DB40F27A41439897
:1039000090FBF1F0CE4941F825006D1CB5F5F47F30
:10391000E0DD00204190002410E0C94850F8240068
:10392000002803DDC64850F8240003E0C44850F8DE
:1039300024004042419908444190641CB4F5F77F4B
:10394000EBDD40F2EF11419890FBF1F04190052141
:103950000822419840F2EF13CDE901210090B84AC6
:1039600040A912A8FFF72CFE0020119040980228D1
:1039700021DB01240BE012A850F82410601E12AACB
:1039800052F82000091A119808441190641C4098BC
:103990008442F0DB4098401E119991FBF0F01190A9
:1039A00041F27071119891FBF0F15498016001217E
:1039B0005598017005E0A44954980160002155987C
:1039C0000170002407E012A850F82400801C30A9E0
:1039D00041F82400641C40988442F4DB00240CE08D
:1039E000469850F82400954941F82400489850F82A
:1039F0002400964941F82400641C4445F0DB002073
:103A0000429000242DE00120449030A850F824A0DA
:103A10004FF080703F900AF10500B0F5F77F1FDC92
:103A20000A3800281CDD054611E0844850F82510AE
:103A30003F9881420ADA449808B1002044907F48B8
:103A400050F825003F9021A840F824506D1C0AF141
:103A500005008542E9DB449810B94298401C429029
:103A6000641C40988442CEDB4298022808DA7648EB
:103A7000C9F800000021539801704AB0BDE8F08FEA
:103A800000242EE06D4951F824200B46611C53F8A8
:103A900021100A44A11C53F821100A44E11C53F8D8
:103AA00021105018C11700EB917189101A4642F885
:103AB0002410664951F824200B46611C53F821104C
:103AC0000A44A11C53F821100A44E11C53F82110A8
:103AD0005018C11700EB917189101A4642F8241052
:103AE000641CB4F5F87FCDDB002004900026002490
:103AF00004E0002005A941F82400641C052CF8DB33
:103B000000240DE021A850F82400B0F5FA7F06DD6E
:103B10004D48C9F80000002153980170ADE7641CBE
:103B200042988442EEDB0024AEE04FF07F400D90DF
:103B30000C9021A9601C51F8200051F82410401A63
:103B40000A2879DD21A850F8245016E03B4850F8A7
:103B500025100C98814204DD384850F825000C905F
:103B60000A953A4850F825100D98814204DD3748EF
:103B700050F825000D900B956D1C21A9601C51F883
:103B80002000A842E2DC601C51F820002F4951F8C7
:103B9000200021A951F824102C4A52F82110401A73
:103BA00021A951F824200B99891A4843109021A982
:103BB000601C51F8200051F82410411A109890FB15
:103BC000F1F021A951F82410204A52F8211008449C
:103BD000109011460B9851F820101098081A109068
:103BE00021A9601C51F82000144951F8200021A996
:103BF00051F82410114A52F82110401A21A951F805
:103C000024200A99891A48430F9021A9601C51F871
:103C1000200051F82410411A0F9890FBF1F021A9CF
:103C200051F82410054A52F8211008440F9011460B
:103C30000B9851F820100BE025E00000F40800205C
:103C4000340100201654000819FCFFFFC4100020A6
:103C50000F98081A0F900C9910984843C0110390C0
:103C60000D990F984843C711002F0CDD052E0ADA75
:103C7000039840B164210398484390FBF7F005A9ED
:103C800041F82600761C641C4298401EA0423FF773
:103C90004CAF314605A800F0ADF8304606EBD071C8
:103CA0004FEA610BBBF1010F0CDDABF1010105AA7D
:103CB00052F8211052F82B20881800EBD0714910CF
:103CC000049103E005A850F82B0004900498022802
:103CD0000DDD0498B8280ADA09490498085C0E90AA
:103CE0000E98C9F8000001215398017005E00548BD
:103CF000C9F8000000215398017000BFBDE6000024
:103D00005454000819FCFFFFF0B505461C46059EFB
:103D1000012000270F6030E052F82070B7422BDD01
:103D200052F820C0471E52F82770BC4524DD0123FD
:103D300000E05B1CC718A74207DA52F8207000EBBE
:103D4000030C52F82CC06745F3D052F8207000EBFA
:103D5000030C52F82CC067450CDD0F680F2F09DAF1
:103D6000D1F800C00CF101070F6045F82C005F1C72
:103D7000384402E0184400E0401C671E8742CBDC58
:103D8000F0BD2DE9F04F05460C469246984629466F
:103D90005046226800F049F84FF0FF3621E0D4F891
:103DA00000B0701C2060771C18E055F82710701CBC
:103DB00010B94FF0FF3001E055F82600A1EB0009E3
:103DC000C14503DCC8F10000814506DA55F827102B
:103DD0002268501C206045F822107F1C5F45E4DB00
:103DE000761C2068B042DADC2846216800F002F830
:103DF000BDE8F08F30B50C46012213E050F82230B8
:103E0000114605E04D1E50F8255040F82150491E3E
:103E1000002904DD4D1E50F825509D42F2DC40F88B
:103E20002130521CA242E9DB30BDF0B503461546F5
:103E3000012217E051F82240104605E0461E51F8D5
:103E4000266041F82060401E002808DD53F82470E9
:103E5000461E51F8266053F82660B742EEDC41F862
:103E60002040521CAA42E5DBF0BD0000002814BF30
:103E70004FF0010C4FF0000C4CEA0103DFF87CC05E
:103E80009C45BCBFC2E900017047F0B4C1F30A53BE
:103E9000A3F2FF344FF0000C01F00043142C15DAAC
:103EA000002CBEBFC2E900C3F0BC7047144D25FA18
:103EB00004F401EA040656EA000510D021EA0403DE
:103EC000C2E900C3F0BC624600F0C8BE332C06DC79
:103ED0004FF0FF35143C25FA04F4204205D1C2E925
:103EE0000001F0BC19466046704720EA0403C2E9AD
:103EF0000031F0BC1A460B4600F0B0BE0000F07F67
:103F0000FFFF0F0010B531A000F0A2F8C820FEF7A7
:103F100097FFC820FEF794FF2EA000F099F8C82064
:103F2000FEF78EFF2EA000F093F8C820FEF788FF62
:103F30002EA000F08DF8C820FEF782FF2EA000F022
:103F400087F8C820FEF77CFF2FA000F081F8C8207A
:103F5000FEF776FF2FA000F07BF8C820FEF770FF79
:103F60002FA000F075F8C820FEF76AFF32480068FD
:103F700000F06EF8C820FEF763FF1A212F48FEF705
:103F8000A2FEC820FEF75CFFC820FEF759FFC8203C
:103F9000FEF756FFC820FEF753FFC820FEF750FF7C
:103FA000C820FEF74DFFC820FEF74AFFC820FEF7E5
:103FB00047FFC820FEF744FFC820FEF741FF20A0BE
:103FC00000F046F8C820FEF73BFF10BD41544909F8
:103FD0000A00000041542B4353510D0A0000000019
:103FE00041542B4350494E3F0D0A000041542B438E
:103FF0004F50533F0D0A000041542B435343533D50
:104000002247534D220D0A0041542B435343413F55
:104010000D0A000041542B434D47463D310D0A0027
:1040200041542B434D47533D2231333435383337D8
:1040300038363533220D0A000C00002000440040C1
:1040400041542B434D47443D312C340D0A000000B0
:1040500010B504460BE021780748FEF734FE00BF98
:1040600040210548FEF762FD0028F9D0641C207845
:104070000028F0D110BD0000004400402DE9F04FB1
:10408000D3B042A112A8FCF781F94E48006800F0B5
:10409000CFFE04460D464C48006800F0C9FE0646B7
:1040A0000F464A48006800F0C3FE804689464848EB
:1040B000006800F0BDFE82468B464648006800F06E
:1040C000B7FECDE910014448006800F0B1FECDE92B
:1040D0000E0142A0CDE904ABCDE90689CDE9086720
:1040E000CDE90A450C90DDE91001CDE90201DDE9D9
:1040F0000E0112AACDE9000139A112A8FCF77CF843
:1041000012A8FFF747FA3EA0FFF7A2FFC820FEF76C
:1041100097FEC820FEF794FE3BA0FFF799FFC8204A
:10412000FEF78EFE3BA0FFF793FFC820FEF788FE48
:104130003BA0FFF78DFFC820FEF782FE3BA0FFF7F4
:1041400087FFC820FEF77CFE3CA0FFF781FFC82058
:10415000FEF776FE3DA0FFF77BFFC820FEF770FE5E
:104160003EA0FFF775FFC820FEF76AFE12A8FFF712
:104170006FFFC820FEF764FE3EA0FFF769FFC8206E
:10418000FEF75EFE53B0BDE8F08F000041542B48AF
:10419000545450504152413D2255524C222C2268D9
:1041A0007474703A2F2F3139352E3133332E31302C
:1041B0002E3135303A383038302F7570646174657F
:1041C0003F00000014000020100000200800002024
:1041D000040000201C00002018000020220D0A000E
:1041E0002573256626256626252E326626252E323F
:1041F0006626252E326626252E326625730000009F
:10420000415449090A00000041542B4353510D0AFF
:104210000000000041542B4350494E3F0D0A00005E
:1042200041542B434F50533F0D0A000041542B5330
:10423000415042523D312C310D0A000041542B5364
:10424000415042523D322C310D0A000041542B485E
:10425000545450494E49540D0A00000041542B4813
:10426000545450504152413D22434944222C223162
:10427000220D0A0041542B48545450414354494F95
:104280004E3D300D0A0000001FB501210220FEF74F
:10429000D5F943F69820ADF8080041F61F40ADF877
:1042A00004000020ADF80A00ADF8060001A90D4891
:1042B000FEF756FB012211460A48FEF747FB1D2078
:1042C0008DF8000003208DF801008DF80200012018
:1042D0008DF803006846FEF76DF901210148FEF7ED
:1042E00018FB1FBD0004004010B586B00446012134
:1042F0000420FEF7B3F901214804FEF79FF90420DA
:10430000ADF8140003208DF8160018208DF8170062
:1043100005A91948FDF756FF0820ADF81400042040
:104320008DF8170005A91448FDF74CFF26208DF8DD
:10433000000002208DF801008DF8020001208DF8A8
:1043400003006846FEF736F901940020ADF8080036
:10435000ADF80A00ADF80C00ADF810000C20ADF877
:104360000E0001A90548FEF73DFC01210348FEF7B8
:10437000D1FB06B010BD0000000801400044004021
:1043800010B586B00446012144F20400FEF766F938
:104390004FF40070ADF8140003208DF816001820BB
:1043A0008DF8170005A91C48FDF70CFF4FF480603D
:1043B000ADF8140004208DF8170005A91648FDF784
:1043C00001FF25208DF8000002208DF801008DF8F6
:1043D000020001208DF803006846FEF7EBF8019417
:1043E0000020ADF80800ADF80A00ADF80C00ADF8FB
:1043F00010000C20ADF80E0001A90848FEF7F2FBF2
:10440000012240F225510548FEF7C7FB0121034870
:10441000FEF780FB06B010BD0008014000380140E7
:1044200010B500290AD00878002807D0054878443C
:10443000FCF7D4FE002801D0002010BD02487844CB
:1044400010BD00009A1100009211000010B5002963
:104450000AD00878002807D005487844FCF7BEFE4B
:10446000002801D0002010BD0248784410BD000093
:104470008A1100008211000021F00042A2F1605276
:10448000B2F5801F01F0004328BFD2F17F6C0BD939
:104490005FEA001C43EAC20242EB507018BF70474B
:1044A00028BF20F001007047B2F5801FBCBF18463E
:1044B00070474FEA410C1CF5001F02D2084600F07D
:1044C000F4BE70B500F040FB00000089FFF7F6BFB6
:1044D0004FF00040A0F580007047000010B591EA51
:1044E000030F48BF83F0004300F1C083841A71EBCF
:1044F000030C05D2121943EB0C03001B61EB0C01FA
:10450000DFF824E14FEA1154A4EB135C1EEA430FD9
:1045100018BF9EEA445F73D023EA0E03DCF1200E3D
:1045200021EA045143F4801332D322FA0CFE10EB3B
:104530000E0023FA0CFE41EB0E01CCF1200E03FA23
:104540000EFE10EB0E0051F10001B1F5801FCCF111
:10455000200E32D201EB045112FA0EF2BDE81040E7
:1045600058BF7047401C38BF5FEA420218BF70470F
:10457000002814BF20F0010041F100014FEA41037F
:1045800013F5001F38BF7047A1F1C04100F02ABBEE
:10459000012A43EB0302ACF1200CDCF11F0E32BF09
:1045A0004FF0000E23FA0CF310EB030041EB045123
:1045B000B4EB115FD0D0A1EB045101F58011490893
:1045C0005FEA300001EB04510ED350F1000038BF18
:1045D00012FA0EFE08D1BDE81040C9E7401C38BFF2
:1045E0005FEA4202CAD1C3E7BDE810404FEA410387
:1045F00013F5001F38BF7047A1F1C04100F0F2BAB7
:104600009EEA445F08D011EA5E0FBDE8104004BF87
:1046100001F0004100207047BDE8104070B500F087
:1046200093FA00BF64FBBE3E0000E0FF02494FF07A
:10463000000000F072BE00BF0000F87F491058BFB4
:10464000C1F140415B1058BFC3F140438B42EFF3CF
:10465000008070472DE9C04130B4DFF8A0C23CEAC9
:10466000111418BF3CEA131400F0EC8081EA030532
:104670001CEA111444EAD57418BF1CEA131500F0A3
:10468000C780A4EB05044FF0004545EAC12145EA87
:10469000C32341EA505143EA525304F17F749942D3
:1046A00004F500344FEAC0204FEAC22208BF90420E
:1046B00000F09C804FEA13650FF24016765D4FEADA
:1046C000134506FB05F7C7F1807706FB07F74FEAAE
:1046D000D737A7FB03687642C8F58038A7FB06CE1C
:1046E00038BFA8F1010807FB08E64FF0000EA6FB53
:1046F000028CE6FB03CEDCF1000CCEF1004E38BF9D
:10470000AEF1010EA6FB0C584FF000074FF000056C
:10471000E6FB0E87A1FB08C6A0FB07CE16EB0E0634
:1047200045F10005E1FB076515F1E04E7EBFA4F5FC
:1047300080345FEA46066D4116F1800745F10005B9
:104740004FEA17274FEA066647EA0567A6F1DE46F5
:10475000B6F1805F4FEA15251FD9384624F0010CC9
:1047600005EBC471BCF1FE6F01EB0C1102D8F0BC7B
:10477000BDE8008124425CBF01F5801E9EEAC47F33
:1047800002D4F0BCBDE80081244238D4F0BCA1F1D1
:10479000C041BDE8004100F025BA4FEAD22242EA0A
:1047A00043524FEAD323A7FB02864FEAD02040EAC8
:1047B000415007FB03661EEA0E0F4FEAD12105FBAD
:1047C000026658BFA6EB0056B6EB00564FEA520EF3
:1047D0004EEAC37E18EB0E0E56EB530EBDD518EB0A
:1047E00002085E417F1C55F10005B6E74FF48015C5
:1047F0004FF000074FF000064FF00008ADE7F0BCA7
:104800004FF0000001F1C04101F00041BDE800811E
:1048100011EA0C1F0CEA131500D00CE013EA0C1F70
:1048200000F025804FF00000F0BC81EA030101F0A8
:104830000041BDE80081F0BCBDE8004181EA030110
:1048400000F0D0B9F0BCBDE8004170B500F07CF9D3
:10485000097EFC3E00F007B881EA03014FF000003A
:1048600001F00041704781EA030100F0BBB9F0BCE0
:10487000BDE800414FF0000021497047FFFDFBF902
:10488000F7F5F4F2F0EEEDEBE9E8E6E4E3E1E0DE83
:10489000DDDBDAD8D7D5D4D3D1D0CFCDCCCBCAC8F5
:1048A000C7C6C5C4C2C1C0BFBEBDBCBBBAB9B8B71C
:1048B000B6B5B4B3B2B1B0AFAEADACABAAA9A8A80F
:1048C000A7A6A5A4A3A3A2A1A09F9F9E9D9C9C9BDD
:1048D0009A99999897979695959493939291919088
:1048E0008F8F8E8E8D8C8C8B8B8A89898888878719
:1048F0008685858484838382828181800000FF078E
:104900000000F87F51EA030C17D41CF5801F58BF34
:10491000BCF5801F00F10680994218BF704708BFA0
:104920009042704707D711F5801F58BF13F5801FBD
:1049300019D499427047894270471CF5801F08D5E9
:10494000BCF5801FF7D58B4218BF704708BF824265
:1049500070474FF4001C1CEB410F38BF1CEB430F9A
:1049600001D28B42704770B500F0EEF892244900F6
:104970004FF000514FF08053FFF760BE51EA030C37
:1049800017D41CF5801F58BFBCF5801F00F10680AE
:10499000994218BF704708BF9042704707D711F57A
:1049A000801F58BF13F5801F19D499427047894260
:1049B00070471CF5801F08D5BCF5801FF7D58B42CA
:1049C00018BF704708BF824270474FF4001C1CEBB1
:1049D000410F38BF1CEB430F01D28B42704770B5BB
:1049E00000F0B2F8922449004FF000514FF080538C
:1049F000FFF724BEDFF848C170B51CEA111E1EBFC8
:104A00001CEA13159EEA0C0F95EA0C0F00F06F805C
:104A100081EA030423EA4C134EEAD47E21EA4C11C6
:104A200041F4801143F48013AE44A1FB024CA0FB7F
:104A30000365AEF17F7E361955EB0C05A1FB034CE7
:104A40004CF10003A0FB021C16EB0C06654153F170
:104A50000003094218BF46F0010613F4007F0BD192
:104A60004FEA03314FEA0530340341EA155140EA79
:104A700016506FF003020AE04FEAC3214FEAC52047
:104A8000F40241EA555140EA56506FF0020202EB3F
:104A90002E4201EB025585EACE710AD05FEA440C42
:104AA00018BF24F0004450F1000041F1000120EA59
:104AB000D47040F2FE7C624500D270BDA84214BFA3
:104AC0004FF080444FF04044002E08BF0024BEF158
:104AD000806FA8BFA1F1C041BDE8704080F2828024
:104AE0004FF0000001F1C04101F0004170479EEA23
:104AF0000C0F0CEA131518BF95EA0C0F06D04FF0F7
:104B0000000081EA030E0EF0004170BD00F01CF8B9
:104B10008900013E00F007B800F009B84FEA430CE5
:104B20005FEA5C5C08D081EA030100F05BB84FEA01
:104B3000410C5FEA5C5CF6D14FF000000149704720
:104B40000000FF070000F87F0EF1020E2EF0030EAA
:104B50005EF8046B364205D4012A43EB030515F5D4
:104B6000001F12D8012841EB010C1CF5001F0CD8C6
:104B70000ED14FEAD17C15F5001F0CEB4C0C0CF15B
:104B8000020C08BF4CEBD37C04E04FF0080C01E0B2
:104B90004FEAD37C0CEB4C0526FA05F606F0070627
:104BA000B6F1040C06D20EEB860CBDE870404CF05A
:104BB000010C6047DFE80CF0090B02024FF00041E6
:104BC0004FF00000A1F5002170BD194610460128E4
:104BD00051EB010418BFD4F5001484BF002001F08C
:104BE000004170BD0808A0F500114FEA310170477F
:104BF00053EA010C17D41CF5801F58BFBCF5801F69
:104C000000F106808B4218BF704708BF8242704790
:104C100007D713F5801F58BF11F5801F19D48B4299
:104C200070479B4270471CF5801F08D5BCF5801F5C
:104C3000F7D5994218BF704708BF904270474FF4AC
:104C4000001C1CEB430F38BF1CEB410F01D29942F3
:104C500070470FB40CBC03BCFFF7C1BE10B591EA9E
:104C6000030F48BF83F000433FF540AC841A71EB5B
:104C7000030C07D212198CF0004C43EB0C03001B01
:104C800061EB0C01DFF8A4E14FEA1154A4EB135CD3
:104C90001EEA430F18BF9EEA445F00F0B08023EA8B
:104CA0006E03524221EA0451C3EB6E0338BF5B1E10
:104CB000DCF1200E25D322FA0CFE10EB0E0043FA95
:104CC0000CFE41EB0E01CCF1200E03FA0EFE10EBB0
:104CD0000E0051F10001CCF1200E29D412FA0EF28F
:104CE00001EB0451BDE8104058BF7047401C1CBF89
:104CF000B2F1004F704700280CBF491C20F00100A2
:104D0000704712EB020E43EB030218BF4FF0010E87
:104D10004EEA4202ACF1200CDCF11E0E54D943FAEB
:104D20000CFE10EB0E0051F1FF31CCF11E0ED5D56B
:104D30000EF1010E12FA0EFE404141EB010101EBB2
:104D4000445C5FEA5C5C10D910EBDE7001EB04514F
:104D500038BFBEF1004FBDE8104018BF70470028B3
:104D60000CBF491C20F00100704730D24FEAD42C10
:104D700011F5001124F400641BD0B1FA81F20B3A52
:104D8000A41AA41ED2F12003914030FA03F3194370
:104D9000904001EBCC71002C01EB0451BDE81040B8
:104DA000A8BF704701F1C0414FF0000001F0004181
:104DB0007047B0FA80F310FA03F100D110BDE41A85
:104DC000173C4805C90AE4E701EB045110BD49103E
:104DD00001EB0451BDE810404FEA300002E04FF013
:104DE000000170474A0008BF0042F8D0B2F5001F2A
:104DF00028BF704701F000414FF0000070479EEA65
:104E0000445F07D011EA5E0FBDE8104004BF0021E7
:104E100000207047BDE8104070B5FFF795FE00BF59
:104E200040DFF63E83F00041104670470000E0FF8F
:104E300043004FEAD30C4FEA3C0C43401FBF4007EE
:104E40000CF1605113F0FE4F70471CF0006F03D15E
:104E500000200CF0004170470CF0004343EA507012
:104E600010B540EACC0000F0DAF900BF0000009273
:104E70004FEA0001FFF7B6BE4FF000414FF00000CF
:104E8000A1F500217047401058BFC0F140404910C3
:104E900058BFC1F140418142EFF3008070470000EC
:104EA0004FF47F0C1CEAD0121EBF1CEAD11392EA09
:104EB0000C0F93EA0C0F00F0858090EA010F48BFB9
:104EC00042F4807240F4000C41F400002CF07F4169
:104ED00020F07F4000B58142A2EB03020FF2081CD4
:104EE000ACEB504EC0F100009EF800E04FEA4E0ED1
:104EF00000FB0EFC38BF49004FEA2C1C02F5FA02F9
:104F00000CFB0EF34FEACE1E4FEA112C4FEAC121E3
:104F10000EEB635E42EB22420EFB0CFC4FEA1C538D
:104F200000FB03114FEA112C4FEA01310EFB0CFC80
:104F30004FEADC4C00FB0C11C14228BF09184CEBB6
:104F400003335DF804EB10EB410143EBC250B2F5C3
:104F50007C0F38BF704729D512F0F00F1CBF00F14D
:104F6000C04000F0004070470081828384858687BE
:104F700088898B8C8D8E8F919293959697999A9C18
:104F80009D9FA0A2A3A5A7A8AAACAEB0B2B3B5B787
:104F9000B9BCBEC0C2C5C7C9CCCED1D4D7D9DCDF5D
:104FA000E2E6E9ECF0F3F7FAFE0000004FEA400C0D
:104FB0000CF1807CBCF17E4F28BF7047B0F1C0403F
:104FC00000F073B990EA010F0CEAD11348BF42F424
:104FD0008072624538BF634507D213F47F0F16D045
:104FE00080EA010000F00040704710B500F017F9AA
:104FF000097EFC3E00F005B880EA010000F00040A8
:10500000704780EA010000F0004000F04EB912F451
:105010007F0F04BF0248704780EA010000F045B9E5
:105020000000C07F41000B0ED3F19E0208D950F45E
:1050300000034FEA032323FA02F048BF40427047BF
:1050400010B500F0ECF800BF4992248000207047B2
:105050006FF0004282EA20007047000010F000412B
:1050600048BF4042B0FA80F310FA03F2C3F19D0347
:105070000BD051EAC35101EB1220530638BF7047E1
:1050800000F1010008BF20F001007047B0FA80F382
:1050900010FA03F2C3F19D030AD0D90501EB1220E7
:1050A000530638BF704700F1010008BF20F001002F
:1050B0007047000050EA010C00F113801CF5000F4E
:1050C00058BFBCF5000F01D48842704707D710F5D0
:1050D000000F58BF11F5000F15D488427047894260
:1050E00070471CF5000F04D5BCF5000FF7D58142C1
:1050F00070474FF0807C1CEB400F38BF1CEB410F1A
:1051000001D28142704710B500F089F8922449001D
:105110004FF000504FF08051FFF7B5BE4FF47F0CB9
:105120001CEAD0121EBF1CEAD11392EA0C0F93EABC
:105130000C0F00F0478090EA010F48BF42F48072E4
:105140004FF0004C4CEA00204CEA012102EB030234
:10515000A0FB0113A2F50002002918BF43F00103D0
:105160005B0028BF4FEA330342EB22425FEA132C75
:105170004CEBC2502EBFBCEB436FB2F57C0F7047B7
:105180004FEA036CBCF1004F08BF20F00100B2F5FC
:105190007C0F38BF70470BD582F0FF0212F5803FBD
:1051A000C8BF704700F1C040D8BF00F00040704752
:1051B00000F5000C5FEA4C0C48BF7047B0F1C040EE
:1051C00000F073B890EA010F0CEAD11348BF42F423
:1051D0008072624538BF634504D280EA010000F066
:1051E0000040704710B500F01AF800BF8900013E7A
:1051F00000F007B800F009B85FEA410C5FEA1C6CE8
:1052000008D080EA010000F050B85FEA400C5FEA85
:105210001C6CF6D14FF00040A0F5800070470EF1F5
:10522000020E2EF0030E5EF8044B244204D44FEA23
:105230004102B2F17F4F11D84FEA4003B3F17F4FE3
:105240000CD80ED14FEAD07CB2F17F4F0CEB4C0C56
:105250000CF1020C08BF4CEBD17C04E04FF0080CC1
:1052600001E04FEAD17C0CEB4C0324FA03F404F088
:105270000704B4F1040C06D20EEB840CBDE8104018
:105280004CF0010C6047DFE80CF0070802024FF019
:105290000040A0F5800010BD0846420018BFD2F1C2
:1052A000807288BF00F0004010BDFF2141EAD0505D
:1052B000C005704751EA000C00F113801CF5000F87
:1052C00058BFBCF5000F01D48142704707D711F5D4
:1052D000000F58BF10F5000F15D481427047894266
:1052E00070471CF5000F04D5BCF5000FF7D58842B8
:1052F00070474FF0807C1CEB410F38BF1CEB400F18
:1053000001D28842704780EA010081EA000180EA08
:105310000100FFF7F8BEFBF76EB90CF00F03092B85
:1053200008BF082000F05F800A2B0BD0082B18BFA5
:10533000704708BF1CF0400F0AD04FF000004FF03C
:10534000000170471CF0400F18BF4FF0004070473D
:105350001CF0100F08D020F0704300F07F4242EAAA
:10536000D3014FEA4370704700F0604021F07F4264
:1053700042EA000201F07F4040EA727070474FF04D
:10538000FF0C4CF4E06C1CEA11531CBF9CEA030CAC
:105390009445C2BFDA4201EB02517047002B0DD099
:1053A000BCF1000F0FD0002A01F00041A4BF41F072
:1053B000E04141F07F614FF00000704701F0004193
:1053C0004FF00000704750EA01334FF09B0C18BFBC
:1053D0004CF0806C7FF42AA97047FBF7A5BDFBF762
:1053E0003DBFFCF7C7B81CF4801F11D01CF4E02FA0
:1053F00003D06FEACC31490070474FF04050EFF3D3
:10540000008222F0704242EA000282F30088704774
:105410004FF0000070472900140100021401290018
:10542000000000000000000000000000000000007C
:10543000000000000000000000000000000000006C
:10544000000000000000000000000000000000005C
:10545000000000005F5F5F606060616161616162C8
:10546000626262626363636363636363646464640C
:1054700064646464646464646464646464646464EC
:1054800063636363636363636262626262626161F6
:105490006161606060605F5F5F5E5E5E5D5D5D5C20
:1054A0005C5C5B5B5A5A5959595858575756565570
:1054B000555454535252515150504F4E4E4D4C4CE6
:1054C0004B4A4A4948484746454544434242414081
:1054D0003F3E3E3D3C3B3A3938383736353433323F
:1054E00031302F2E2D2C2B2A292827262524232224
:1054F000211F1E1D1C1B1A19171615141311100F2E
:105500000E0C0B0A09070605030201000240000009
:10551000000000A00000000005400000000000C8DE
:10552000000000000C4000000000409C0000000053
:10553000194000000020BCBE000000003440000004
:10554000BFC91B8E00000004B5400000504BCFD0F7
:105550006607E2CF010000006C4100003E8251AAC4
:10556000DFEEA73401000000D9420000DCB5A0E264
:105570003A301F97FFFFFFFFB4450000FD25A0C88C
:10558000E9A3C14FFFFFFFFFFF3F000000000080C5
:1055900000000000FF3F000000000080000000004D
:1055A000F4560008000000206C00000028010008EC
:1055B000605700086C0000202C2E000044010008F9
:1055C000000000000000F07F1C000000430000000D
:1055D000F8FFFFFF0C0000000E0000000F000000AD
:1055E0002E0000001001000043000000F8FFFFFF44
:1055F00000404040404040404040414141414140E6
:10560000404040404040404040404040404040409A
:105610004005020202020202020202020202020229
:10562000022020202020202020202002020202022E
:105630000202909090909090101010101010101086
:105640001010101010101010101010100202020292
:1056500002028888888888880808080808080808D6
:1056600008080808080808080808080802020202D2
:1056700040000000000000000000000000000000EA
:10568000000000000000000000000000000000001A
:10569000000000000000000000000000000000000A
:1056A00000000000000000000000000000000000FA
:1056B00000000000000000000000000000000000EA
:1056C00000000000000000000000000000000000DA
:1056D00000000000000000000000000000000000CA
:1056E00000000000000000000000000000000000BA
:1056F00000000000000000000000000000000000AA
:105700000000000000000000000000000000000099
:105710000000000000000000000000000000000089
:10572000000000000000000000000000010203046F
:10573000010203040607080902040608000000002D
:105740000000000000000000000000000000000059
:105750000000000000000000000000000000000049
:04000005080000ED02
:00000001FF
