:020000040800F2
:10000000802E0020A9010008451900088916000863
:10001000411900088F120008C720000800000000E6
:10002000000000000000000000000000E51A0008C9
:100030001514000800000000CD190008F91B000885
:10004000C3010008C3010008C3010008C301000880
:10005000C3010008C3010008C3010008C301000870
:10006000C301000819140008C3010008C3010008F7
:10007000C3010008C3010008C3010008C301000850
:10008000C3010008C3010008C3010008C301000840
:10009000C3010008C3010008C3010008C301000830
:1000A000C3010008C3010008C3010008C301000820
:1000B000C30100085D1C0008C3010008C30100085B
:1000C000C3010008C3010008C3010008C301000800
:1000D000C3010008511E0008D91E0008C301000812
:1000E000C3010008C3010008C301000800F002F8C2
:1000F00000F04AF80AA090E8000C82448344AAF178
:100100000107DA4501D100F03FF8AFF2090EBAE875
:100110000F0013F0010F18BFFB1A43F0010318473B
:10012000E837000008380000103A24BF78C878C1CA
:10013000FAD8520724BF30C830C144BF04680C60ED
:10014000704700000023002400250026103A28BF35
:1001500078C1FBD8520728BF30C148BF0B60704739
:10016000662903F00983732900F069830020704732
:100170001FB500F069FB04000020002103F0DEF849
:10018000E0601FBD10B510BD00F05AFC1146FFF72E
:10019000EFFF02F04DF800F078FC03B4FFF7F2FF38
:1001A00003BC01F0ADFF0000094880470948004743
:1001B000FEE7FEE7FEE7FEE7FEE7FEE7FEE7FEE717
:1001C000FEE7FEE704480549054A064B7047000074
:1001D000FD1B0008ED00000880280020802E002074
:1001E000802A0020802A0020704700000FB41CB530
:1001F000074B06AA7B4469460090059800F0F5FA83
:100200000020694600F004FB1CBC5DF814FB0000F4
:100210001906000070B50C460546012A05D028785D
:10022000800600D5EA69002302E0012305E05B1C9B
:10023000934202D2E05C0028F9D1A869E618C01AFE
:10024000A861286A184428622846AFF3008004E0B9
:10025000D5E9012114F8010B9047B442F8D32846A0
:10026000AFF3008070BD2DE9F0474FF0000A8946DA
:100270000446C0F820A02046E1688847002876D0D0
:10028000252806D0D4E901219047206A401C20622D
:10029000F1E7E168204600258847C4F81CA006461F
:1002A0000027C4F818A02A2E09D0304601F021FFFB
:1002B00038B304EB8708303EC8F8186019E059F8E5
:1002C000041B204604EB87029161E1688847012FF7
:1002D000064618D1E069002820DA25F020051DE047
:1002E000D8F8180000EB800006EB40003038C8F862
:1002F00018002046E1688847064601F0FAFE00280B
:10030000EED1012F0AD02E2E08D12046E168884771
:100310007F1C0646022F45F02005C4DBA06900289B
:1003200003DA404245F00105A061E80701D025F05D
:100330001005B6B1A6F14100192802D8203645F4BF
:1003400000654A463146204625604D46FFF708FFC6
:1003500058B1012806D0ED1D25F0070000F108096D
:1003600089E704E005F1040985E730468AE7206A59
:10037000BDE8F08740EA0103024630B59B0710D183
:100380004FF0013400E008C208C91D1B9D4315EA67
:10039000C41FF8D013F0FF0102F8011B0DD01B0A97
:1003A000F8E711F8013B002B02F8013B05D011F8EA
:1003B000013B002B02F8013BF3D130BD7047704781
:1003C0007047704770472DE9FF4F0C461E464FF0AF
:1003D000FF378BB0D2E90001DDF860800A908A46D1
:1003E000C1F30A5505B93D46002108464FF000000B
:1003F000BAF1000F00F4400005DA00EB80004FF482
:10040000400101EA50004FEA9059B9F1010F00DDB7
:10041000B9460A9850EA4A000ED044F61050A5F2A8
:10042000FF3545432F14B8F1000F1ED07542291E29
:100430001EDDC9F100021CE0B8F1010F4FF0000011
:1004400001D0302103E0F24305E02154401CB042CA
:10045000FBDB30460022002121540B99C1F80880B3
:10046000C1E900200FB0BDE8F08FBD1B6D1CDEE7B9
:100470004A4600DA694206A800F070FA06AB93E833
:10048000070003AB83E8070050460A9900F044FBDD
:100490008DE80700A0F500501F3800900398002D4C
:1004A00009DD42F21F014A46084403A90390684649
:1004B00000F0A3FD08E0A0F500504A461F3803A94C
:1004C0000390684600F0ADFD8DE807000004000CC5
:1004D00003D04FF0FF30410800E01046B8F1000FA4
:1004E00003D00022009215461EE0751E05D400F0D0
:1004F000AFF9303262556D1EF9D5B346012208437B
:1005000002D000227F1C04E02078302801D1002294
:100510007F1E002A099786D01DE0112D07DA00F012
:1005200097F9303262556D1C50EA0102F5D108434B
:1005300002D00098C8B10EE00021681E05E0235CDF
:10054000625C63542254401E491C8142F7DBAB4677
:10055000A81B401E0990002004F80B000B98099A74
:10056000C0F80880C0E9002B7CE711264FF0000896
:1005700059E72DE9F04F88460446D21D22F00701C5
:1005800091B0D1E90001CDE90A0101F09EFD0246DA
:100590000B98C00F01D02D2007E02068810701D5FE
:1005A0002B2002E0202101EAC000032A099001D09B
:1005B000072A05DB03464146204600F08FF90BE190
:1005C0002078800601D5E06900E00620B8F1650FCB
:1005D000814606D0B8F1660F18D0B8F1670F70D118
:1005E00031E00020B9F1110F009001DB112301E08F
:1005F00009F101030AAA01A90CA8FFF7E4FEDDE94D
:100600000C70002609F10105834647E001204B46A6
:1006100000904FF000470AAA01A90CA8FFF7D3FEEB
:10062000DDE90DB00C995D46002610B909F1010015
:100630000D18B9EB050003D4C0F1FF3609F101052F
:10064000A5EB09002BE0B9F1010F01DA4FF0010928
:100650000020B9F1110F0090484601DD112300E0A0
:1006600003460AAA01A90CA8FFF7ADFEDDE90C704C
:100670004D4600268346207800070AD4AB4500DAB1
:100680005D4601A8012D04DD411911F8011C302936
:1006900007D04F4502DA17F1040F04DA0120824631
:1006A0000FE06D1EEEE7002F02DCED1B3E4403E081
:1006B000781CA84200DD7D1CB81B00F1010A4FF038
:1006C00000472078000703D4AA4501DB4FF0FF3A2A
:1006D0000021B7F1004F0DF143088DF8431024D0ED
:1006E00002202B23002F01DA7F422D230A21021E34
:1006F000A0F1010000DC5FB197FBF1FC97FBF1F288
:1007000001FB1C7C17460CF1300C08F801CDEEE71C
:10071000A8F1010003702188090501D5452100E0F9
:100720006521A0F1010800F8011C09980FA9A1EBAF
:100730000807FF1D00B10120411901EBEA70A16912
:100740003844081A401EA0612078C00602D4204612
:10075000AFF30080099828B1D4E901219047206ABD
:10076000401C20622078C00622D52046AFF30080CE
:100770001EE0002E04DBB34502DD01A8805D00E031
:100780003020D4E901219047206A401C2062761C69
:10079000AAF101005FEA000A0AD100F055F8C0682A
:1007A0000168405CD4E901219047206A401C206226
:1007B000281EA5F10105DCDC07E0D4E9012118F8C9
:1007C000010B9047206A401C2062381EA7F10107E8
:1007D000F3DC2046AFF30080032011B043E60000B5
:1007E00001694A1C02610878704700B58FB0CDE9F5
:1007F00001310021059105497944CDE903101146E5
:100800006846FFF730FD0FB000BD0000E5FFFFFFB9
:100810000A6802F8010B0A60704710B5436913B10A
:10082000AFF3008001E0FFF7F5FC012010BD127866
:1008300000F124010A7000224A700122EDE71168DC
:100840004FF0FF32E9E70000004870473C280020E5
:1008500030B5B0F10A024FEA900E71F100034EEA92
:10086000817EB0EB0E0061EB91014FEA101E4EEA63
:10087000017E10EB0E0041EB11114FEA102E4EEAF3
:10088000016E10EB0E0041EB11214FEA104E4EEAC3
:10089000014E10EB0E0041EB1141401841F10001F7
:1008A0004FEAD00040EA41704FEAD10110EB8005D9
:1008B0004FEA810444EA907444EB01046D1944EB5F
:1008C0000404521BA3414FF0000348BF0A3200D575
:1008D00030BD401C41F1000130BD00002DE9F04168
:1008E0001F46044603260168072A01F4006004DB62
:1008F00008B116A505E016A503E008B115A500E0AE
:1009000015A521F010002060A069C01EA0610FB1E4
:10091000401EA0612046AFF300804FB1D4E9012111
:1009200038469047206A401C2062C01C206206E0C6
:10093000206AFAE7D4E9012115F8010B9047761EE9
:10094000F8D22046AFF30080BDE8F0814E414E0062
:100950006E616E00494E4600696E66002DE9F047F3
:10096000814616468AB0334878440DC88DE80D009C
:1009700030487844801C03AC0DC884E80D0041F673
:100980009B300844372190FBF1F290FBF1F5A5F183
:10099000800501FB12041B3C02D56442012000E0EB
:1009A0000020DFF890A080460027FA44AAF1BE0A92
:1009B0000DE0E00709D03246684607EB47010AEB35
:1009C000810100F02EFB8DE8070064107F1C002CD5
:1009D000EFD1184F7F44AC3F18E0E80714D007EB85
:1009E00004100DF1180A90E80E008AE80E00C068A5
:1009F000F04201D198190890324606A903A800F0E8
:100A000010FB03AB83E807006D10641C002DE4D1DC
:100A100032466946B8F1000F03A802D000F0EDFAA3
:100A200001E000F0FEFAC9E90001C9F808200AB0A7
:100A3000BDE8F087842F0000004870471C28002084
:100A40007546FFF7F9FFAE4605006946534620F0AC
:100A50000700854618B020B5FFF7B4FBBDE820407D
:100A60004FF000064FF000074FF000084FF0000B6A
:100A700021F00701AC46ACE8C009ACE8C009ACE81D
:100A8000C009ACE8C0098D4670470446AFF300804A
:100A90002046FFF782FB00004FF0013C50F8042B8A
:100AA00051F8043B9A4221D1A2EB0C03934313EA81
:100AB000CC1317D150F8042B51F8043B9A4215D1AE
:100AC000A2EB0C03934313EACC130BD150F8042B85
:100AD00051F8043B9A4209D1A2EB0C03934313EA69
:100AE000CC13DBD04FF00000704700BFD01A01BA22
:100AF000B1FA81F101F0180122FA01F0CB40C1F105
:100B00002001DBB2C0B2C01A2CFA01F3D11A914312
:100B100011EAC311E6D170475FEA400C08BF91F0BB
:100B2000000F4FEA8C234FEAC12243EA51514FEAAA
:100B30001C5018BF00F5F0404FEA300018BF41F0DC
:100B400000415FEA6C5C00F02980BCF1FF3F08BF08
:100B500040F080407047130C06BF12044FF0100C99
:100B60004FF0000C130E04BF12020CF1080C130F0F
:100B700004BF12010CF1040C930F04BF92000CF19E
:100B8000020CD30F04BF52000CF1010C11464FF0C0
:100B90000002A0F11F00A0EB0C00704711F0004F05
:100BA00008BF704731F000413FF4D5AF0B0C06BFD2
:100BB00009044FF0100C4FF0000C0B0E04BF09029B
:100BC0000CF1080C0B0F04BF09010CF1040C8B0F86
:100BD00004BF89000CF1020CCB0F04BF49000CF1DB
:100BE000010CCCF12003A0EB0C0022FA03F302FA73
:100BF0000CF241EA030100F10100704720F07F4C44
:100C000080EA030023F07F47ACEB070303F57C5336
:100C100000F0004003F1FF032DE980494FEA154B36
:100C200009B44FEA144325EA0B4E24EA03480FF2B5
:100C3000042606EB132749083E785FEA320203FBDD
:100C40000667C7F5000707FB06F64FEA54374FEA79
:100C5000D64606F1020607FB066CCCF1005C4FEAB3
:100C60001C472CEA074C07FB06F40CFB06F504EBCB
:100C700015464FEA961634BF00204FF000404FEA69
:100C8000D13706FB07FC4FEA1C4C0CFB0BF7D21BC1
:100C900003FB0CF761EB07010CFB0EF7B0EB074011
:100CA00072EB17420CFB08F734BFA2EB0742B2EB22
:100CB000074261EB17414FEA0C444FEA910706FBEC
:100CC00007FC4FEA1C4C0CFB0BF7B0EBC74072EB78
:100CD000573203FB0CF734BFA2EBC742B2EBC7425B
:100CE00061EB57310CFB0EF7B0EBC70072EB57729C
:100CF0000CFB08F734BFA2EBC702B2EBC70261EBF3
:100D00005771039F4FEA816141EA921104EBCC04D1
:100D10004FEAD1374FEA826206FB07FC42EA9012A3
:100D20004FEA80604FEA1C4C0CFB0BF7D21B03FB15
:100D30000CF761EB07010CFB0EF7B0EB074072EB11
:100D400017420CFB08F734BFA2EB0742B2EB074295
:100D500061EB17414FEA8C554FEA910704EB9C2455
:100D600006FB07FC4FEA1C4C0CFB0BF7B0EBC74033
:100D700072EB573203FB0CF734BFA2EBC742B2EB66
:100D8000C74261EB57310CFB0EF7B0EBC70072EBBB
:100D900057720CFB08F734BFA2EBC702B2EBC702D5
:100DA00061EB577115EB4C254FEA816141EA9211D5
:100DB0004FEA82624FEAD13742EA901206FB07FC03
:100DC00044F100044FEA80604FEA1C4C0CFB0BF727
:100DD000D21B03FB0CF761EB07010CFB0EF7B0EB2A
:100DE000074072EB17420CFB08F734BFA2EB074237
:100DF000B2EB074261EB174115EB1C154FEA81314D
:100E000041EA92414FEA823242EA90424FEA803010
:100E10004FEA0C7644F1000448EA03434EEA0B48DB
:100E20004FF0000EB2EB080C71EB030724BF6246D3
:100E300039464EEB0E0E4FF0000B0018524149415F
:100E40004BEB0B0BB2EB080C71EB03077BF1000BC8
:100E500024BF624639464EEB0E0E4FF0000B0018D1
:100E6000524149414BEB0B0BB2EB080C71EB030702
:100E70007BF1000B24BF624639464EEB0E0E51EA61
:100E8000020718BF46F0010616EB0E7655F1000278
:100E900054F1000103D5BDE88901BDE80088BDE833
:100EA0008901BDE80048B619524141EB0101A3F1A7
:100EB0000103704780807F7E7D7C7B7A79787776AE
:100EC00076757473727171706F6E6E6D6C6C6B6A27
:100ED0006A696868676666656464636362616160C5
:100EE000605F5F5E5E5D5D5C5C5B5B5A5A59595842
:100EF00058575756565555555454535352525251AC
:100F0000515050504F4F4F4E4E4D4D4D4C4C4C4B01
:100F10004B4B4A4A4A494949484848474747474648
:100F20004646454545444444444343434342424284
:100F300042414141002B26D4770021D01CB54FEA15
:100F4000370703B44FF010004FF010014FF00000CE
:100F50000FBCBDE810400BF1010BBBF1010F08BF46
:100F60005FEA170722BF12F1010211F101014FF0F0
:100F7000004143F1000300F0004043EA00007047E5
:100F8000F9D35708DAE746EA064613F1400F4FEA6D
:100F900016461FDD13F1200FDFBF16430A4600215E
:100FA00020335B42C8D0C3F1200746EA064602FA66
:100FB00007F74FEA164646EA0706C3F1200722FA6A
:100FC00003F201FA07F721FA03F14FF0000342EAB6
:100FD0000702B1E746EA020646EA06464FEA164627
:100FE00046EA0106BCBF46EA0646360C4FF000034F
:100FF0004FF000024FF000019EE72DE9C0489346F4
:1010000030B491E8380007C831EA400C48BF34EAF0
:10101000430C03D5FFF7F2FDFFF78CFFF0BCBDE8F2
:1010200000882DE9C048934630B491E8380007C8DD
:1010300010F0804F08BF13F0804F03D100F005F887
:10104000FFF778FFF0BCBDE8008820F07F4780EA1A
:10105000030023F07F4C07EB0C03A3F57C5300F057
:101060000040A3F1FE0392F0000F00F0B38095F072
:10107000000F00F077802DE901494FEA11404FEA57
:10108000144621EA004800FB06FC24EA064708FB58
:1010900006F607FB08F800FB07F718EB06484CEBD1
:1010A000164C4FEA124B18EB07484FEA15464CEB2B
:1010B000174022EA0B4E0BFB06FC25EA06470EFB07
:1010C00006F607FB0EFE0BFB07F71EEB064E4CEB7E
:1010D000164C4FF000061EEB074E4CEB174B18EB6F
:1010E0000B0840F1000018EB0E0B58EB000840F124
:1010F00000008F1A4FF000013CBFC943661B14BFAC
:10110000B5EB040C00213CBFC943F61B4FEA174462
:101110004EEA8E0E27EA04454FEA1C4704FB07629D
:101120002CEA074C05FB07F70CFB05F604FB0CFC4F
:1011300016EB074642EB174216EB0C4642EB1C42FD
:101140001BEB060658EB0202414146EA9E0601D51A
:10115000BDE80189B619524141EB0101A3F1010338
:10116000BDE801894FEA14454FEA114724EA0546D4
:1011700021EA074C05FB07F406FB07F70CFB06F119
:1011800005FB0CFC11EB074144EB17444FEA1247F7
:1011900011EB0C4144EB1C4422EA074C05FB07F21F
:1011A00006FB07F70CFB06F605FB0CFC16EB0746E7
:1011B00042EB174216EB0C4642EB1C456A1854F101
:1011C000000148BF7047B619524141EB0101A3F13C
:1011D0000103704795F0000F37D04FEA11424FEAF4
:1011E000144721EA024624EA074C02FB07F106FBFA
:1011F00007F70CFB06F402FB0CFC14EB074441EB75
:1012000017414FEA154714EB0C4441EB1C4125EA0A
:10121000074C02FB07F506FB07F70CFB06F602FB83
:101220000CFC16EB074645EB174516EB0C4645EB59
:101230001C42121951F1000148BF7047B6195241C2
:1012400041EB0101A3F1010370474FEA14454FEA56
:10125000114724EA054621EA074C05FB07F106FB86
:1012600007F70CFB06F24FF0000605FB0CFC12EB37
:10127000074241EB174112EB0C4251EB1C4148BFB6
:101280007047921841EB0101A3F10103704700BFC1
:10129000FEE7000010B5002404E0601CC4B2012089
:1012A00000F06EFF2021104800F0E1F908B1642C35
:1012B000F3DB002404E0601CC4B2012000F060FFF6
:1012C0002021094800F0D3F908B9642CF3DB282069
:1012D00000F056FF2021044800F0C9F908B10120B0
:1012E00010BD0020FCE70000000C014070B5002498
:1012F000002506E06006040EFFF7CCFF0443681CDF
:10130000C5B2082DF6DB204670BD00007CB5054651
:101310000E4600BF2021144800F0A9F90028F9D09A
:10132000002405E0FFF7E2FF0DF80400601CC4B2E2
:10133000052CF7DB9DF800009DF8011008449DF88E
:10134000021008449DF8031008449DF804108842D8
:1013500009D19DF8000002F02FF930609DF80200DD
:1013600002F02AF928607CBD000C0140F8B5054662
:101370000E4600240121082000F03AFB2020ADF8A1
:10138000000010208DF8030003208DF8020069464C
:101390001F4800F0E1F820211D4800F073F90A20F1
:1013A00000F0D0FE20211A4800F06AF9142000F065
:1013B000C9FE2021164800F065F91E2000F0E0FE6D
:1013C0002021134800F05EF90121082000F010FBF5
:1013D0002020ADF8000048208DF8030003208DF890
:1013E000020069460A4800F0B7F804E0012000F066
:1013F000C7FE601CC4B22021054800F038F908B1CE
:10140000502CF3DB31462846FFF780FFF8BD000083
:10141000000C01407047000010B5012000F092FE62
:10142000082000F01BF868B10821074800F01FF9F8
:1014300040B93321054800F042FE01F0F1FC0820DC
:1014400000F006F810BD0000000C0140003801401B
:101450000149086070470000140401400146002063
:101460000022074B1B6803EA0102054B14331B687B
:101470000B4013B10AB1012000E0002070470000CA
:1014800000040140002123498279002A3AD00A460B
:10149000126803689A430B461A600A1D12680368B3
:1014A0009A430B1D1A60027911440A6803681A43B3
:1014B0000A60184A0832126803689A43154B0833C9
:1014C0001A601A1D126803689A43124B0C331A6093
:1014D0004279102A0ED11A1F126803681A430D4B65
:1014E00008331A601A1D126803681A43094B0C333B
:1014F0001A600DE00749427911440A6803681A43EB
:101500000A6005E0027911440A6803689A430A6098
:10151000704700000004014030B500228B071C0F0B
:101520000F2303FA04F20B4B8C1053F8243093432F
:10153000084C8D1044F8253023468C1053F8243085
:101540008C07240F00FA04F42343024C8D1044F856
:10155000253030BD080001402DE9F041024600254C
:101560000026002000230024002791F803C00CF07F
:101570000F0591F803C00CF0100CBCF1000F03D064
:1015800091F802C04CEA050591F800C0BCF1000FCB
:1015900031D0146800202BE04FF0010C0CFA00F35E
:1015A000B1F800C00CEA03069E4220D183004FF040
:1015B0000F0C0CFA03F7BC4305FA03FC4CEA0404D5
:1015C00091F803C0BCF1280F06D14FF0010C0CFAC2
:1015D00000FCC2F814C00AE091F803C0BCF1480F47
:1015E00005D14FF0010C0CFA00FCC2F810C0401CF1
:1015F0000828D1D31460B1F800C0BCF1FF0F34DD6E
:10160000546800202EE000F1080C4FF0010808FAA1
:101610000CF3B1F800C00CEA03069E4221D183000E
:101620004FF00F0C0CFA03F7BC4305FA03FC4CEA2D
:10163000040491F803C0BCF1280F05D100F1080C97
:1016400008FA0CF8C2F8148091F803C0BCF1480FF6
:1016500007D100F1080C4FF0010808FA0CF8C2F8A5
:101660001080401C0828CED35460BDE8F0810246AB
:10167000002093680B400BB1012000E00020704770
:10168000416170470161704700BFFEE710B500205F
:101690000F4908600F48006820F00F000D490860EE
:1016A0000846006840F00700086000200A49C1F8B9
:1016B000A001022000F064FD01200549086002201D
:1016C00000F05EFD00200449C1F89C0110BD00003F
:1016D0009C812142040C01400080214208B5012177
:1016E000082000F085F94FF4C070ADF8000010201C
:1016F0008DF8030003208DF8020069460448FFF7C7
:101700002BFF0120034908600349C1F8A00108BD6F
:10171000000C01409C8121420080214210B5002034
:101720000F4908600F48006820F00F000D4908605D
:101730000846006840F00700086001200A49C1F827
:10174000A001022000F01CFD0120054908600220D4
:1017500000F016FD00200449C1F89C0110BD0000F6
:101760009C812142040C01400080214270B5054655
:1017700000241748006820F00F001549086008464B
:10178000006840F004000860002616E000201149BF
:101790000860022000F0F4FC01200F49C1F89C0110
:1017A0006006040E0B487C38006808B1601CC4B2A7
:1017B000012000F0E5FC701CC6B2082EE6DB15B96E
:1017C000FFF7ACFF01E0FFF761FF204670BD0000AE
:1017D000040C01409C8121420080214270B50446E6
:1017E0001548006820F00F0013490860084600689B
:1017F00040F007000860002010490860002517E04D
:10180000E0090E49091D08606006040E022000F080
:10181000B7FC01200A49C1F89C01022000F0B0FC8D
:10182000002006490860022000F0AAFC681CC5B22E
:10183000082DE5DB70BD0000040C01409C812142B5
:101840000080214210B50F48006820F00F000D49BC
:1018500008600846006840F00700086001200A4957
:1018600008600A49C1F89C01042000F089FC0020AE
:1018700005490860042000F083FC00200349C1F8FA
:101880009C0110BD040C0140A08121420080214236
:1018900010B50F48006820F00F000D490860084699
:1018A000006840F00700086000200A4908600A4903
:1018B000C1F8A001042000F063FC01200549086084
:1018C0000549C1F8A001042000F05AFC10BD000039
:1018D000040C01409C8121420080214210B500246B
:1018E0001448006820F00F0012490860084600689C
:1018F00040F00400086001200F49086000F040FC3F
:1019000001200E49C1F89C0100F03AFC07E0601C80
:10191000C4B2FA2C03DDFFF7BBFF012010BD06485F
:10192000803800680028F2D10349091F086000BF11
:10193000F4E70000040C0140A08121420080214214
:1019400000BFFEE77047000070B5002100230F22A2
:10195000C47804B3154C246804F4E064C4F5E0646E
:10196000210AC1F10403CA40447804FA03F18478DF
:101970001440214309010E4C0678A155047804F067
:101980001F050124AC4005786D11AD0005F1E0257F
:10199000C5F8004109E0047804F01F050124AC40BB
:1019A000044D0678761145F8264070BD0CED00E038
:1019B00000E400E080E100E002490143024A1160D6
:1019C000704700000000FA050CED00E070470000D1
:1019D00029B1064AD2690243044BDA6104E0034AA2
:1019E000D2698243014BDA61704700000010024067
:1019F00029B1064A92690243044B9A6104E0034A02
:101A000092698243014B9A617047000000100240C6
:101A100030B500210022002400232D4D6D6805F013
:101A20000C0121B1042905D0082923D105E0294D55
:101A3000056022E0274D05601FE0254D6D6805F427
:101A40007012234D6D6805F48034022505EB924237
:101A50001CB9214D554305600BE01D4D6D6805F423
:101A600000351DB11C4D5543056002E0194D55432D
:101A7000056002E0174D056000BF00BF144D6D68A2
:101A800005F0F0010909154D6B5C0568DD40456006
:101A90000F4D6D6805F4E061090A104D6B5C4568F7
:101AA000DD4085600A4D6D6805F46051C90A0B4D33
:101AB0006B5C4568DD40C560054D6D6805F44041CF
:101AC000890B074D6B5CC568B5FBF3F5056130BD4F
:101AD0000010024000127A0000093D0020000020A2
:101AE00030000020704710B500F002F810BD000073
:101AF0000CB50020019000903348006840F480301D
:101B00003149086000BF3048006800F400300090A0
:101B10000198401C0190009818B90198B0F5A06F89
:101B2000F1D12948006800F4003010B10120009084
:101B300001E0002000900098012843D1234800686C
:101B400040F01000214908600846006820F00300BA
:101B500008600846006840F0020008601A484068C3
:101B6000194948600846406848600846406840F4A3
:101B7000806048600846406820F47C104860084651
:101B8000406840F4E81048600846006840F0807003
:101B9000086000BF0C48006800F000700028F9D011
:101BA0000948406820F0030007494860084640683B
:101BB00040F00200486000BF0348406800F00C009D
:101BC0000828F9D10CBD000000100240002002409E
:101BD000042808D14FF0E021096941F004014FF0D9
:101BE000E022116107E04FF0E021096921F00401D2
:101BF0004FF0E022116170477047000010B51348A4
:101C0000006840F00100114908600846406810492A
:101C100008400E494860084600680E4908400B49D4
:101C200008600846006820F4802008600846406884
:101C300020F4FE0048604FF41F008860FFF753FF58
:101C40004FF000600449086010BD00000010024021
:101C50000000FFF8FFFFF6FE08ED00E030B5C1B070
:101C60000121284800F087F8002848D001212548A4
:101C700000F072F824492548FFF778FB24492548ED
:101C800000F09AFC01F088F92048006801F072FB2E
:101C9000044622460B4620A101A8FEF7A7FA01A898
:101CA00000F052FC1848006801F064FB044622462C
:101CB0000B461DA101A8FEF799FA01A800F044FC0B
:101CC0001DA000F041FC1348006801F053FB0446DE
:101CD00022460B4619A101A8FEF788FA01A800F0D8
:101CE00033FC0B48006801F045FB044622460B46D6
:101CF00015A101A8FEF77AFA01A800F025FC41B071
:101D000030BD000000040040080000200400002056
:101D1000140000201000002077656E3D252E3266ED
:101D20002C200D0A000000007368693D252E3266E4
:101D30002C200D0A000000000D0A000048523D252D
:101D40002E32662C2000000053704F323D252E327B
:101D5000662C200D0A000000CA430282704721B1A0
:101D6000028842F00102028004E002884FF6FE730E
:101D70001A400280704730B502460020002300243C
:101D8000158A05EA0103958905EA010413B10CB12E
:101D9000012000E0002030BD1AB183890B4383810C
:101DA00002E083898B438381704700000022028810
:101DB0001D4B98420ED01D4B98420BD0B0F1804F76
:101DC00008D01B4B984205D01A4B984202D01A4BB0
:101DD000984204D14FF68F731A404B881A43174B21
:101DE000984207D0164B984204D04FF6FF431A4052
:101DF000CB881A4302808B8883850B8803850A4B26
:101E000098420BD0094B984208D00E4B984205D00F
:101E10000D4B984202D00D4B984201D10B7A0386AC
:101E20000123838270470000002C014000340140F0
:101E30000004004000080040000C0040001000407A
:101E400000140040004001400044014000480140AF
:101E500010B540F225511D4800F071F810B31B4831
:101E600000F028F9C4B21A48008800F40040C8B94C
:101E70001748008800F4804060B10A2C03D000208D
:101E80001349088020E01248008840F400401049BF
:101E9000088019E00D2C06D10D48008840F48040E0
:101EA0000B49088010E00A480088C0F30D0009497A
:101EB0000C5407480088401C0549088008460088E3
:101EC000C72801DD0020088010BD00000038014057
:101ED000380000205400002010B509E0084800F048
:101EE000E9F80849087008460178074800F0E7F863
:101EF0002021034800F016F80028EFD110BD0000A3
:101F000000440040000000200038014021B18289D7
:101F100042F40052828104E082894DF6FF731A4038
:101F20008281704702460020B1F5007F00D100BFDA
:101F300013880B400BB1012000E00020704770B502
:101F40000246002400230025002040F66A16B14214
:101F500000D100BFC1F3421501F01F03012606FAAC
:101F600003F3012D02D19689334006E0022D02D100
:101F7000168A334001E0968A33400C12012606FA95
:101F800004F41688344013B10CB1012000E00020A5
:101F900070BDF0B50346002400260025002040F661
:101FA0006A17B94200D100BF1846C1F3421401F0CC
:101FB0001F06012707FA06F5012C01D10C3004E0B9
:101FC000022C01D1103000E014301AB107682F4301
:101FD000076002E00768AF430760F0BD2DE9F047F6
:101FE00086B005460E460024A24600BFA146002743
:101FF000B08900B100BF2F462C8A4CF6FF70044018
:10200000F08804432C82AC894EF6F3100440B0886B
:1020100031890843718908430443AC81AC8A4FF687
:10202000FF400440B0890443AC8201A8FFF7F0FCF4
:102030001F48874202D1DDF810A001E0DDF80CA0B6
:10204000A88900F4004040B10AEBCA0000EB0A1076
:1020500031684900B0FBF1F807E00AEBCA0000EB79
:102060000A1031688900B0FBF1F86420B8FBF0F089
:1020700004012009642101FB1089A88900F40040B3
:1020800040B1322000EBC900B0FBF1F000F00700D6
:10209000044308E0322000EB09106421B0FBF1F0AA
:1020A00000F00F0004432C8106B0BDE8F08700006B
:1020B0000038014001468888C0F308007047C1F32A
:1020C00008028280704700BFFEE7490050EAC12045
:1020D00018BF04204A0D18BF40F0010040F2FF7203
:1020E000B2EB515F08BF40F00200012808BF052095
:1020F000704730380A2801D201207047002070470D
:10210000014600BF7047000010B504466FF00400A0
:10211000FFF75EFDE11704EB5171C1F3C701074AF8
:1021200011701046007800EB4001C1EBC0104FF673
:10213000FF7101EAC0000249088010BD3A0000208A
:102140003C00002001460D4A12884A434FF0E0232C
:102150005A6100229A6101221A6100BF4FF0E02209
:10216000106900F001021AB100F48032002AF5D0A3
:1021700000224FF0E0231A619A6170473C00002072
:1021800001460D4A12784A434FF0E0235A6100227B
:102190009A6101221A6100BF4FF0E022106900F03D
:1021A00001021AB100F48032002AF5D000224FF06B
:1021B000E0231A619A6170473A0000201FB501219F
:1021C0000846FFF715FC01210820FFF711FC032149
:1021D0000120FFF7A1F90820019000208DF80800E8
:1021E0000C208DF8090001208DF80A0001A8FFF7E6
:1021F00049F909208DF8000000208DF801008DF8C4
:10220000020001208DF803006846FFF79DFB0820BF
:10221000FFF71EF90820ADF80C0048208DF80F00DC
:1022200003A90248FFF798F91FBD0000000C014008
:102230001548164908601648164908601648174997
:10224000086013481649086016481749086017487F
:102250001749086017A0194908604FF4A060FFF7FC
:10226000ABFB0820FFF750FF4FF4E13001F016F808
:102270004FF4165000F0C6FFFFF7A0FF00F092FFEA
:1022800000F0F8F800BFFEE70000F0410400002075
:102290000000A041080000200000C84210000020FB
:1022A0001400002078D6F742180000206F673D42E6
:1022B0001C00002068656C70210000000C000020EC
:1022C00070B50446FFF7BEFAAE20FFF787FAFFF7B6
:1022D00005FB00B119E02046FFF780FAFFF7FEFA90
:1022E00000B112E0FFF7AEFAAF20FFF777FAFFF781
:1022F000F5FA00B109E00020FFF738FA0546FFF7CC
:102300000DFAFFF7C5FA284670BDFFF7C1FA0020A5
:10231000FAE770B505460C46FFF794FAAE20FFF7D2
:102320005DFAFFF7DBFA00B111E02846FFF756FA35
:10233000FFF7D4FA00B10AE02046FFF74FFAFFF7A3
:10234000CDFA00B103E0FFF7A3FA012070BDFFF75B
:102350009FFA0020FAE770B505460C460020FFF70B
:10236000AFFF0120FFF7ACFFFFF76CFAAE20FFF7DD
:1023700035FAFFF7B3FA00B12AE02846FFF72EFA44
:10238000FFF7ACFA00B123E0FFF75CFAAF20FFF7EC
:1023900025FAFFF7A3FA00B11AE00120FFF7E6F9EA
:1023A00020700120FFF7E2F960700120FFF7DEF9ED
:1023B000A0700120FFF7DAF9E0700120FFF7D6F9ED
:1023C00020710020FFF7D2F96071FFF761FA00BFBA
:1023D000FFF75EFA70BD000008B501210820FFF785
:1023E00007FB4FF48040ADF8000048208DF8030053
:1023F00069461A48FFF7B0F8FFF770F900F030F8B7
:10240000C0210220FFF785FF00210320FFF781FF95
:1024100000210420FFF77DFF00210520FFF779FF51
:1024200000210620FFF775FF0F210820FFF771FF3D
:1024300003210920FFF76DFF27210A20FFF769FF1D
:1024400024210C20FFF765FF24210D20FFF761FFF9
:102450007F211020FFF75DFF08BD0000000C014048
:1024600010B540210920FFF754FF40210920FFF754
:1024700050FF10BDF0B585B0FFF7AEFF294D002627
:102480004FF4FA7028490860002435E000BF27485F
:1024900000680128FBD003A90720FFF75CFF9DF827
:1024A0000C008007800B9DF80D1040EA01209DF87C
:1024B0000E1008431E4941F824009DF80F008007C4
:1024C000800B9DF8101040EA01209DF81110084380
:1024D000184941F82400164850F82400A84202D2B6
:1024E000134850F82450124850F82400B04202D942
:1024F0000F4850F82460641C0B4800688442C5DB18
:102500000B4850F824700C480C490D4A0D4BCDE98E
:1025100000210290064A04480168064800F04EF97E
:1025200005B0F0BDFFFF03004000002024812142E0
:102530004C2000207C180020500000204C0000207F
:10254000480000204400002010B504460BE021782C
:102550000748FFF7B4FD00BF40210548FFF7E2FC44
:102560000028F9D0641C20780028F0D110BD0000AC
:10257000003801402DE9F84705460C4616461F462F
:10258000DDE90A9ADDF824803B463246214628469A
:10259000CDF8008000F092FB4B463246214628469B
:1025A00000F0C9FB2068504501DA206800E0504681
:1025B0002060BDE8F88700002DE9F04F89B0814622
:1025C0008A46002006900590032004904FF4FA708C
:1025D00070490860D4E000246F4FA046C820FFF780
:1025E000B1FD642420E06D4850F82410A4F164008B
:1025F0006A4A42F820106A4850F82410A4F1640096
:10260000674A42F82010654850F82400B84202D2C8
:10261000624850F82470614850F82400404502D9BF
:102620005E4850F82480641CB4F5FA7FDBDB4FF47D
:10263000C8747BE0601E594951F8205000BF5948CA
:1026400000680128FBD007A90720FFF784FE9DF84A
:102650001C008007800B9DF81D1040EA01209DF8AA
:102660001E1008434D4941F824009DF81F008007C3
:10267000800B9DF8201040EA01209DF821100843AE
:10268000474941F82400454850F82400A8421DD984
:10269000424951F82410481B00F08EFF8346A8EBF6
:1026A000070000F089FF01460390584600F08EFEB7
:1026B00083463D49584600F093FF8346584600F054
:1026C00047FF361A002E1EDA00261CE0334951F867
:1026D0002410681A00F070FF8346A8EB070000F092
:1026E0006BFF01460390584600F070FE83462E496A
:1026F000584600F075FF8346584600F029FF06440F
:10270000FF2E00DDFF262948007801280AD128483D
:102710000068782806DA2648007806902548007870
:10272000059002E0002006900590641CB4F5FA7F45
:1027300080DB1E481E49204A1E4BCDE90021029035
:10274000164A14480168164800F038F8184800681E
:10275000002802DA6620164908601648006800283A
:1027600002DA6120134908601148006800F00CFF8C
:10277000C9F800000F48006800F006FFCAF8000022
:102780000498411EC9B2049100287FF424AF09B017
:10279000BDE8F08F40000020FFFF03004C20002028
:1027A0007C1800202481214200007F43500000203B
:1027B0004C00002044000020480000202DE9FF4F7D
:1027C000C6B08846994600204590002406E0469809
:1027D00050F82410459808444590641C4445F6DBA5
:1027E0004598B0FBF8F04590002408E0469850F872
:1027F00024104598081AFE4941F82400641C4445F9
:10280000F4DB002417E0FA4850F824100246601C5C
:1028100052F820000144A01C52F820000144E01CA2
:1028200052F820000F183846F91707EB91718910FC
:1028300042F82410641CB4F5F87FE4DB00240AE0BD
:10284000EB49601C51F8200051F82410401AE94966
:1028500041F82400641CB4F5F77FF1DD00240EE09C
:10286000E44951F824200B46611C53F821105018FC
:1028700000EBD07149101A4642F82410641CB4F5DC
:10288000F77FEDDB00251BE0002043902C460BE09A
:10289000D84850F82410601BD74A32F810204398CB
:1028A00001FB12004390641C681D8442F0DB40F27F
:1028B0007A41439890FBF1F0CE4941F825006D1C18
:1028C000B5F5F47FE0DD00204190002410E0C94818
:1028D00050F82400002803DDC64850F8240003E027
:1028E000C44850F824004042419908444190641C77
:1028F000B4F5F77FEBDD40F2EF11419890FBF1F07A
:10290000419005210822419840F2EF13CDE90121C1
:102910000090B84A40A912A8FFF72CFE00201190A1
:102920004098022821DB01240BE012A850F8241063
:10293000601E12AA52F82000091A1198084411903A
:10294000641C40988442F0DB4098401E119991FB32
:10295000F0F0119041F27071119891FBF0F15498E0
:10296000016001215598017005E0A4495498016067
:10297000002155980170002407E012A850F82400A7
:10298000801C30A941F82400641C40988442F4DB88
:1029900000240CE0469850F82400954941F82400A2
:1029A000489850F82400964941F82400641C444596
:1029B000F0DB0020429000242DE00120449030A85C
:1029C00050F824A04FF080703F900AF10500B0F558
:1029D000F77F1FDC0A3800281CDD054611E084481B
:1029E00050F825103F9881420ADA449808B1002037
:1029F00044907F4850F825003F9021A840F824508B
:102A00006D1C0AF105008542E9DB449810B9429833
:102A1000401C4290641C40988442CEDB42980228BD
:102A200008DA7648C9F800000021539801704AB0CE
:102A3000BDE8F08F00242EE06D4951F824200B46AC
:102A4000611C53F821100A44A11C53F821100A44B8
:102A5000E11C53F821105018C11700EB9171891037
:102A60001A4642F82410664951F824200B46611C8E
:102A700053F821100A44A11C53F821100A44E11C08
:102A800053F821105018C11700EB917189101A46A4
:102A900042F82410641CB4F5F87FCDDB00200490CC
:102AA0000026002404E0002005A941F82400641C4D
:102AB000052CF8DB00240DE021A850F82400B0F527
:102AC000FA7F06DD4D48C9F80000002153980170D7
:102AD000ADE7641C42988442EEDB0024AEE04FF088
:102AE0007F400D900C9021A9601C51F8200051F8F6
:102AF0002410401A0A2879DD21A850F8245016E045
:102B00003B4850F825100C98814204DD384850F8B5
:102B100025000C900A953A4850F825100D988142EE
:102B200004DD374850F825000D900B956D1C21A948
:102B3000601C51F82000A842E2DC601C51F8200023
:102B40002F4951F8200021A951F824102C4A52F89D
:102B50002110401A21A951F824200B99891A4843C1
:102B6000109021A9601C51F8200051F82410411A3E
:102B7000109890FBF1F021A951F82410204A52F846
:102B800021100844109011460B9851F8201010980D
:102B9000081A109021A9601C51F82000144951F81E
:102BA000200021A951F82410114A52F82110401A8E
:102BB00021A951F824200A99891A48430F9021A984
:102BC000601C51F8200051F82410411A0F9890FB16
:102BD000F1F021A951F82410054A52F821100844B7
:102BE0000F9011460B9851F820100BE025E00000E3
:102BF000DC0800201C0100207C37000819FCFFFFC6
:102C0000AC1000200F98081A0F900C9910984843A8
:102C1000C01103900D990F984843C711002F0CDD88
:102C2000052E0ADA039840B164210398484390FBCB
:102C3000F7F005A941F82600761C641C4298401E56
:102C4000A0423FF74CAF314605A800F0ADF8304642
:102C500006EBD0714FEA610BBBF1010F0CDDABF15C
:102C6000010105AA52F8211052F82B20881800EB18
:102C7000D0714910049103E005A850F82B0004908E
:102C8000049802280DDD0498B8280ADA0949049846
:102C9000085C0E900E98C9F800000121539801704D
:102CA00005E00548C9F8000000215398017000BFF5
:102CB000BDE60000BA37000819FCFFFFF0B5054675
:102CC0001C46059E012000270F6030E052F820705E
:102CD000B7422BDD52F820C0471E52F82770BC4582
:102CE00024DD012300E05B1CC718A74207DA52F875
:102CF000207000EB030C52F82CC06745F3D052F85B
:102D0000207000EB030C52F82CC067450CDD0F68F7
:102D10000F2F09DAD1F800C00CF101070F6045F858
:102D20002C005F1C384402E0184400E0401C671E81
:102D30008742CBDCF0BD2DE9F04F05460C469246AC
:102D4000984629465046226800F049F84FF0FF3671
:102D500021E0D4F800B0701C2060771C18E055F812
:102D60002710701C10B94FF0FF3001E055F8260015
:102D7000A1EB0009C14503DCC8F10000814506DA7A
:102D800055F827102268501C206045F822107F1C3F
:102D90005F45E4DB761C2068B042DADC2846216817
:102DA00000F002F8BDE8F08F30B50C46012213E0C8
:102DB00050F82230114605E04D1E50F8255040F8DD
:102DC0002150491E002904DD4D1E50F825509D421A
:102DD000F2DC40F82130521CA242E9DB30BDF0B5F4
:102DE00003461546012217E051F82240104605E03F
:102DF000461E51F8266041F82060401E002808DD7C
:102E000053F82470461E51F8266053F82660B742E6
:102E1000EEDC41F82040521CAA42E5DBF0BD000088
:102E200010B531A000F0A2F8C820FFF78BF9C82038
:102E3000FFF788F92EA000F099F8C820FFF782F973
:102E40002EA000F093F8C820FFF77CF92EA000F028
:102E50008DF8C820FFF776F92EA000F087F8C8207B
:102E6000FFF770F92FA000F081F8C820FFF76AF98A
:102E70002FA000F07BF8C820FFF764F92FA000F026
:102E800075F8C820FFF75EF93248006800F06EF868
:102E9000C820FFF757F91A212F48FFF710F9C8206B
:102EA000FFF750F9C820FFF74DF9C820FFF74AF99E
:102EB000C820FFF747F9C820FFF744F9C820FFF7FB
:102EC00041F9C820FFF73EF9C820FFF73BF9C820B9
:102ED000FFF738F9C820FFF735F920A000F046F8D1
:102EE000C820FFF72FF910BD415449090A0000001E
:102EF00041542B4353510D0A0000000041542B4311
:102F000050494E3F0D0A000041542B434F50533F50
:102F10000D0A000041542B435343533D2247534D68
:102F2000220D0A0041542B435343413F0D0A000038
:102F300041542B434D47463D310D0A0041542B432C
:102F40004D47533D223133343538333738363533F6
:102F5000220D0A000C0000200044004041542B4385
:102F60004D47443D312C340D0A00000010B5044695
:102F70000BE021780748FFF7A2F800BF4021054881
:102F8000FEF7D0FF0028F9D0641C20780028F0D18B
:102F900010BD0000004400402DE9F04FD3B042A125
:102FA00012A8FDF7E7F94E48006800F0E3F904467F
:102FB0000D464C48006800F0DDF906460F464A48C9
:102FC000006800F0D7F9804689464848006800F05C
:102FD000D1F982468B464648006800F0CBF9CDE92E
:102FE00010014448006800F0C5F9CDE90E0142A087
:102FF000CDE904ABCDE90689CDE90867CDE90A45FD
:103000000C90DDE91001CDE90201DDE90E0112AA03
:10301000CDE9000139A112A8FDF7E8F812A8FFF7E1
:1030200093FA3EA0FFF7A2FFC820FFF78BF8C82055
:10303000FFF788F83BA0FFF799FFC820FFF782F859
:103040003BA0FFF793FFC820FFF77CF83BA0FFF7FA
:103050008DFFC820FFF776F83BA0FFF787FFC82059
:10306000FFF770F83CA0FFF781FFC820FFF76AF870
:103070003DA0FFF77BFFC820FFF764F83EA0FFF7F5
:1030800075FFC820FFF75EF812A8FFF76FFFC82092
:10309000FFF758F83EA0FFF769FFC820FFF752F886
:1030A00053B0BDE8F08F000041542B4854545050A9
:1030B0004152413D2255524C222C22687474703A80
:1030C0002F2F3139352E3133332E31302E313530EB
:1030D0003A383038302F7570646174653F000000F5
:1030E0001400002010000020080000200400002030
:1030F0001C00002018000020220D0A002573256600
:1031000026256626252E326626252E326626252E73
:10311000326626252E326625730000004154490987
:103120000A00000041542B4353510D0A00000000D7
:1031300041542B4350494E3F0D0A000041542B434C
:103140004F50533F0D0A000041542B5341504252FF
:103150003D312C310D0A000041542B534150425255
:103160003D322C310D0A000041542B485454504933
:103170004E49540D0A00000041542B4854545050FD
:103180004152413D22434944222C2231220D0A0062
:1031900041542B48545450414354494F4E3D300DF7
:1031A0000A0000001FB501210220FEF711FC43F6C2
:1031B0009820ADF8080041F61F40ADF8040000204B
:1031C000ADF80A00ADF8060001A90D48FEF7EEFDC6
:1031D000012211460A48FEF7DFFD1D208DF8000090
:1031E00003208DF801008DF8020001208DF8030006
:1031F0006846FEF7A9FB01210148FEF7B0FD1FBD9F
:103200000004004010B586B0044601210420FEF7FA
:10321000EFFB01214804FEF7DBFB0420ADF81400AE
:1032200003208DF8160018208DF8170005A91948FD
:10323000FEF792F90820ADF8140004208DF817006D
:1032400005A91448FEF788F926208DF80000022011
:103250008DF801008DF8020001208DF8030068460A
:10326000FEF772FB01940020ADF80800ADF80A00EB
:10327000ADF80C00ADF810000C20ADF80E0001A95F
:103280000548FEF7ABFE01210348FEF73FFE06B0FE
:1032900010BD0000000801400044004010B586B099
:1032A0000446012144F20400FEF7A2FB4FF4007033
:1032B000ADF8140003208DF8160018208DF81700C3
:1032C00005A91C48FEF748F94FF48060ADF81400DA
:1032D00004208DF8170005A91648FEF73DF92520B2
:1032E0008DF8000002208DF801008DF80200012009
:1032F0008DF803006846FEF727FB01940020ADF827
:103300000800ADF80A00ADF80C00ADF810000C2074
:10331000ADF80E0001A90848FEF760FE012240F258
:1033200025510548FEF735FE01210348FEF7EEFD65
:1033300006B010BD000801400038014010B500295A
:103340000AD00878002807D005487844FDF7A4FB88
:10335000002801D0002010BD0248784410BD0000B4
:10336000DE050000D60500000808A0F500114FEAB0
:103370003101704743004FEAD30C4FEA3C0C434005
:103380001FBF40070CF1605113F0FE4F70471CF057
:10339000006F03D100200CF0004170470CF0004397
:1033A00043EA507010B540EACC0000F09AF900BF33
:1033B000000000924FEA0001FFF7D6BF4FF0004136
:1033C0004FF00000A1F50021704700004FF47F0C82
:1033D0001CEAD0121EBF1CEAD11392EA0C0F93EA2A
:1033E0000C0F00F0858090EA010F48BF42F4807214
:1033F00040F4000C41F400002CF07F4120F07F40AD
:1034000000B58142A2EB03020FF2081CACEB504E58
:10341000C0F100009EF800E04FEA4E0E00FB0EFCEB
:1034200038BF49004FEA2C1C02F5FA020CFB0EF3E0
:103430004FEACE1E4FEA112C4FEAC1210EEB635E1C
:1034400042EB22420EFB0CFC4FEA1C5300FB031123
:103450004FEA112C4FEA01310EFB0CFC4FEADC4C19
:1034600000FB0C11C14228BF09184CEB03335DF877
:1034700004EB10EB410143EBC250B2F57C0F38BFB7
:10348000704729D512F0F00F1CBF00F1C04000F0CA
:1034900000407047008182838485868788898B8C71
:1034A0008D8E8F919293959697999A9C9D9FA0A2AD
:1034B000A3A5A7A8AAACAEB0B2B3B5B7B9BCBEC0FD
:1034C000C2C5C7C9CCCED1D4D7D9DCDFE2E6E9EC9E
:1034D000F0F3F7FAFE0000004FEA400C0CF1807C9C
:1034E000BCF17E4F28BF7047B0F1C04000F03FB93B
:1034F00090EA010F0CEAD11348BF42F48072624592
:1035000038BF634507D213F47F0F16D080EA01005D
:1035100000F00040704710B500F0E3F8097EFC3E73
:1035200000F005B880EA010000F00040704780EA32
:10353000010000F0004000F01AB912F47F0F04BF40
:103540000248704780EA010000F011B90000C07F16
:1035500041000B0ED3F19E0208D950F400034FEA4C
:10356000032323FA02F048BF4042704710B500F031
:10357000B8F800BF49922480002070476FF00042E5
:1035800082EA20007047000010F0004148BF40422E
:10359000B0FA80F310FA03F2C3F19D030BD051EAA5
:1035A000C35101EB1220530638BF704700F10100F0
:1035B00008BF20F001007047B0FA80F310FA03F260
:1035C000C3F19D030AD0D90501EB1220530638BF81
:1035D000704700F1010008BF20F0010070470000B3
:1035E0004FF47F0C1CEAD0121EBF1CEAD11392EAE2
:1035F0000C0F93EA0C0F00F0478090EA010F48BFD0
:1036000042F480724FF0004C4CEA00204CEA012159
:1036100002EB0302A0FB0113A2F50002002918BF70
:1036200043F001035B0028BF4FEA330342EB224221
:103630005FEA132C4CEBC2502EBFBCEB436FB2F5CC
:103640007C0F70474FEA036CBCF1004F08BF20F0BD
:103650000100B2F57C0F38BF70470BD582F0FF0236
:1036600012F5803FC8BF704700F1C040D8BF00F0DE
:103670000040704700F5000C5FEA4C0C48BF7047F3
:10368000B0F1C04000F073B890EA010F0CEAD1131A
:1036900048BF42F48072624538BF634504D280EA75
:1036A000010000F00040704710B500F01AF800BFAC
:1036B0008900013E00F007B800F009B85FEA410C4C
:1036C0005FEA1C6C08D080EA010000F050B85FEAA5
:1036D000400C5FEA1C6CF6D14FF00040A0F5800072
:1036E00070470EF1020E2EF0030E5EF8044B2442DA
:1036F00004D44FEA4102B2F17F4F11D84FEA4003A0
:10370000B3F17F4F0CD80ED14FEAD07CB2F17F4F8E
:103710000CEB4C0C0CF1020C08BF4CEBD17C04E020
:103720004FF0080C01E04FEAD17C0CEB4C0324FA7B
:1037300003F404F00704B4F1040C06D20EEB840C7D
:10374000BDE810404CF0010C6047DFE80CF00708C2
:1037500002024FF00040A0F5800010BD0846420074
:1037600018BFD2F1807288BF00F0004010BDFF2169
:1037700041EAD050C0057047FCF7FBBE2900140198
:1037800000021401290000000000000000000000F9
:103790000000000000000000000000000000000029
:1037A0000000000000000000000000000000000019
:1037B000000000000000000000005F5F5F606060CC
:1037C00061616161616262626262636363636363D8
:1037D00063636464646464646464646464646464AB
:1037E00064646464646463636363636363636262A5
:1037F0006262626261616161606060605F5F5F5EC2
:103800005E5E5D5D5D5C5C5C5B5B5A5A5959595804
:10381000585757565655555454535252515150506B
:103820004F4E4E4D4C4C4B4A4A49484847464545F9
:103830004443424241403F3E3E3D3C3B3A393838AA
:1038400037363534333231302F2E2D2C2B2A292880
:10385000272625242322211F1E1D1C1B1A1917167B
:1038600015141311100F0E0C0B0A0907060503029D
:103870000100000002400000000000A00000000065
:1038800005400000000000C8000000000C400000DF
:103890000000409C00000000194000000020BCBE59
:1038A0000000000034400000BFC91B8E000000046F
:1038B000B5400000504BCFD06607E2CF01000000BA
:1038C0006C4100003E8251AADFEEA73401000000E7
:1038D000D9420000DCB5A0E23A301F97FFFFFFFF9E
:1038E000B4450000FD25A0C8E9A3C14FFFFFFFFFBD
:1038F000FF3F00000000008000000000FF3F0000CC
:103900000000008000000000443900080000002092
:1039100054000000280100089839000854000020D5
:103920002C2E0000440100081C0000004300000091
:10393000F8FFFFFF0C0000000E0000000F00000069
:103940002E00000000000000000000000000000049
:103950000000000000000000000000000000000067
:103960000000000000000000010203040102030443
:103970000607080902040608000000000000000015
:103980000000000000000000000000000000000037
:0839900000000000000000002F
:04000005080000ED02
:00000001FF
